:020000040800F2
:100000005011002001010008231B00087718000888
:10001000211B0008510300084126000800000000D1
:10002000000000000000000000000000DF1B0008CE
:100030008B03000800000000DD1B00089D23000862
:100040001B0100081B0100081B0100081B01000820
:100050001B0100081B0100081B0100081B01000810
:100060001B0100081B0100081B01000855030008C4
:100070001B0100081B0100081B0100081B010008F0
:100080001B0100081B010008150200081B010008E5
:100090001B0100081B0100081B0100081B010008D0
:1000A0001B0100081B0100081B0100081B010008C0
:1000B0001B0100081B0100081B0100081B010008B0
:1000C0001B0100081B0100081B0100081B010008A0
:1000D0001B0100081B0100081B0100081B01000890
:1000E0001B0100081B0100081B010008DFF80CD0F1
:1000F00000F052F800480047112900085011002074
:100100000648804706480047FEE7FEE7FEE7FEE7B1
:10011000FEE7FEE7FEE7FEE7FEE7FEE71F24000836
:10012000ED00000840EA01039B0703D009E008C97D
:10013000121F08C0042AFAD203E011F8013B00F8AC
:10014000013B521EF9D27047D2B201E000F8012BF8
:10015000491EFBD270470022F6E710B513460A4647
:1001600004461946FFF7F0FF204610BD30B50B4698
:10017000014600202022012409E021FA02F59D42D7
:1001800005D303FA02F5491B04FA02F52844151EAB
:10019000A2F10102F1DC30BD064C074D06E0E0683B
:1001A00040F0010394E8070098471034AC42F6D3BE
:1001B000FFF7A0FF902C0008B02C000870B58C1839
:1001C00010F8015B15F0070301D110F8013B2A116B
:1001D00006D110F8012B03E010F8016B01F8016B58
:1001E0005B1EF9D12B0705D40023521E0DD401F854
:1001F000013BFAE710F8013BCB1A921C03E013F81D
:10020000015B01F8015B521EF9D5A142D8D3002051
:1002100070BD0000014800F074B9000068090020BA
:1002200070B5044600688168C943C9071CD181685C
:1002300021F00101816000F053FD05460FE000BF91
:1002400000F04EFD401B022809D9A06A40F01000C2
:10025000A062E06A40F00100E062012070BD206809
:100260008068C043C007EBD0002070BD10B50146C8
:10027000406A826A12F0500F05D0006A026BBDE836
:10028000104008461047816A41F40071816201689C
:100290008968C1F3424107290CD1017B51B9816AB8
:1002A00021F480718162816AC90403D4816A41F0BA
:1002B0000101816200F022F910BD10B5406A816A27
:1002C00041F040018162C16A41F00401C16200F065
:1002D00017F910BD10B5406A00F011F910BD00000B
:1002E000F8B500260446009600688168C943C9072E
:1002F00028D0816841F001018160134813490068EA
:10030000B0FBF1F000E0401E00900028FBD100F0AF
:10031000E7FC054611E000BF00F0E2FC401B0228AC
:100320000BD9A06A40F01000A062E06A40F0010022
:10033000E06284F824600120F8BD20688068C04332
:10034000C007E9D10020F8BDC008002040420F00DE
:10035000FEE70000014800F0BDBA00009809002047
:1003600030B590F840500124AC40C56B6C60046817
:1003700063604368102B036803D099600068C26013
:1003800030BD9A600068C16030BD704730B5002351
:100390000FE000220021CA24641EE4B2FCD2491CF2
:1003A000C9B20F29F7D3521CD2B2832AF2D35B1CF5
:1003B000DBB28342EDD330BD72B6FEE72DE9F041EA
:1003C0000E4607467F21002001F00AFC7F21002015
:1003D00001F06FFD5C2002F035F90025002438465D
:1003E00002F06EF9304602F06BF9641CE4B2802C26
:1003F000F5D36D1CEDB2802DF0D3BDE8F0817047D0
:10040000F8B50024009490F824202546012A12D043
:10041000012280F824204A681F23072A0DD206688B
:10042000776B521E02EB820293409F430B6893400E
:100430001F43776319E00220F8BD06680D2A0AD22F
:10044000376BD21F02EB820293409F430B689340AD
:100450001F43376309E0F76A0D3A02EB82029340CB
:100460009F430B6893401F43F7620A68072306689F
:100470000A2A0AD3F7680A3A02EB420293409F43E2
:100480008B6893401F43F76008E0376902EB420234
:1004900093409F438B6893401F4337610A68102A3B
:1004A00001D0112A20D1124B02689A4217D19368C9
:1004B0001B0219D4936843F4000393600968102960
:1004C00012D10C490C4A0968B1FBF2F101EB810130
:1004D000490000E0491E00910029FBD104E0816A37
:1004E00041F020018162012480F824502046F8BDAB
:1004F00000240140C008002040420F0070477047B0
:10050000704710B5044600684168890626D5016821
:10051000890723D5A16AC90603D4A16A41F40071F1
:10052000A1628168C1F34241072910D1217B71B9D1
:10053000416821F020014160A06A20F48070A0622F
:10054000A06AC00403D4A06A40F00100A062204663
:10055000FFF7D4FF21686FF012000860206841683F
:1005600009062ED5016849072BD5A16AC90603D40F
:10057000A16A41F40051A1628168C1F302310729E7
:1005800009D04168490515D48168C1F34241072962
:1005900010D1217B71B9416821F080014160A06ACE
:1005A00020F48050A062A06AC00503D4A06A40F085
:1005B0000100A0622046FFF722FF21686FF00C00C7
:1005C00008602068416849060DD50068C0070AD058
:1005D000A06A40F48030A062204600F093F82168C1
:1005E0006FF00100086010BD2DE9F0414FF00007E9
:1005F00004003D467ED0A06A002628B9E66284F851
:100600002460204600F080F82046FFF709FEA16A2A
:10061000C90600D420B1A06A40F01000A06269E0D1
:10062000A16A21F4885141F00201A1626268E16986
:10063000237B0A4347EA43010A43A1684FF48077CA
:10064000B94209D0012907D05FF0000194F814C025
:10065000BCF1010F02D00AE03946F7E7F3B1A36A13
:1006600043F02003A362E36A43F00103E3622368DB
:10067000D3F804C02CF4694C4CEA010CC3F804C054
:1006800021688B68DFF870C003EA0C0313438B60AA
:10069000A168B9420BD0012909D00CE0DFF85CC099
:1006A000A3690CEB43330B4343F40061DFE7218A7A
:1006B0000D05A5F580152168CB6A23F470032B4343
:1006C000CB62216889680E4B1940914208D1E662DD
:1006D000A16A21F0020141F00101A162BDE8F081AF
:1006E000A06A20F0020040F01000A062E06A40F032
:1006F0000100E0620120F1E7FDF7E1FF00E0FFFF0C
:10070000FE0E1FFF7047000070B586B0002506463C
:10071000009501950295039500682549884245D1C9
:100720002449886940F400708861886900F4007089
:100730000490886940F004008861886900F0040032
:100740000490886940F0080088618869032400F0FB
:1007500008000490FF20CDE900046946164800F027
:10076000C9F90120CDE900046946144800F0C2F936
:10077000144C1348C4E900058020C4E902508000ED
:100780002061800060612020C4E90605204600F059
:100790004BF908B1FFF710FE346200221146122017
:1007A000666200F009FB122000F0F8FA06B070BD96
:1007B000002401400010024000080140000C0140EC
:1007C00008000240980900202DE9F04789460446B8
:1007D0003B4900683B4F0E1D9046884201D0B8420D
:1007E00007D1306810F4702F03D001252846BDE8EA
:1007F000F08794F8240001280CD0012084F824000C
:100800002046FFF76DFD05004FF0000004D084F88E
:100810002400EBE70220EAE7A16A40F60162914377
:1008200041F48071A1622168B94218D1326812F492
:10083000702F14D0A16A41F48011A162316849057A
:1008400005D5A16A21F4005141F48051A162A16A49
:10085000C9040AD5E16A21F00601E16206E0A26A54
:1008600022F48012A2624968E9E7E06284F8240079
:10087000216A15488862216A1448C862216A1448AE
:10088000086321686FF0020008602068816841F405
:1008900080718160216843464A464C31206A00F0ED
:1008A000F1F820688168C1F342410729816803D0CB
:1008B00041F48011816099E741F4A001FAE700005A
:1008C00000240140002801406D020008D502000804
:1008D000BB0200082DE9F05FC16B0C6801680B6872
:1008E000D0F840C0042202FA0CF2494DDFF824A1EE
:1008F000494E4A4FDFF828B1DFF828E122422CD0D8
:100900005A072AD50A68920603D40A6822F004021C
:100910000A600168A94201D1042219E0514501D1C0
:10092000402215E0B14202D14FF4806210E0B9429A
:1009300002D14FF480420BE0594502D14FF480229E
:1009400006E0714502D14FF4800201E04FF0806271
:100950002F4908394A60C16A3BE04FF0020808FAA3
:100960000CF818EA040F4FF000094FF0010235D0DF
:100970005FEA837832D50B689B0605D40B6823F0B9
:100980000A030B6080F821200168A94201D10222EC
:1009900019E0514501D1202215E0B14202D14FF4B6
:1009A000007210E0B94202D14FF400520BE05945F9
:1009B00002D14FF4003206E0714502D14FF400122B
:1009C00001E04FF00072124908394A6080F8209027
:1009D000816A00291AD0BDE8F05F0847082505FAAA
:1009E0000CF5254212D01B0710D50B6823F00E031F
:1009F0000B6090F84010C36B02FA01F159608263FA
:100A000080F8212080F82090016BE2E7BDE8F09F9C
:100A1000080002401C000240300002404400024036
:100A2000580002406C00024030B528B308C8134992
:100A300014221944B1FBF2F18900C16310498163AA
:100A4000022141771A6843F6F0718A43D0E9001415
:100A50002143D0E902452C432143046921434469E1
:100A6000214384692143114319600021416301221C
:100A700042770177084630BD012030BDF8FFFDBF49
:100A80000000024070B5044690F8200000250128BF
:100A90000CD0012084F8200094F821600020012E61
:100AA00006D084F820000225284670BD022070BDC3
:100AB000022684F82160A0632068066826F00106FB
:100AC00006602046FFF74CFCE06A002820680168B9
:100AD00002D041F00E0106E021F00401016020681F
:100AE000016841F00A0101602068016841F00101DC
:100AF0000160D9E72DE9F84FDFF8B891002409F13A
:100B0000040A0AF1040B23460F270BF1040EC9E077
:100B10000125A5402A40AA427DD1674ED1F804C0E4
:100B2000ACEB0608B44532D014DCBCF1030F3AD06C
:100B300009DCBCF1000F2AD0BCF1010F1CD0BCF1C4
:100B4000020F31D11DE0BCF1110F17D0BCF1120F13
:100B50002AD119E0B8F5881F19D006DCB8F5803F16
:100B600015D0B8F5801F1FD111E0B8F5001F0ED0C9
:100B7000B8F5041F18D10AE0CB6815E0CB681B1D3F
:100B800012E0CB6808330FE0CB680C330CE08B68C5
:100B90002BB1012B4FF0080303D0456104E004237F
:100BA00002E0056100E00023FF2A01D8064601E0CB
:100BB00000F104064FEA840501D9A5F12005D6F815
:100BC000008007FA05FC28EA0C0803FA05F548EA54
:100BD0000508C6F800804D68ED0062D5374DAE6956
:100BE00046F00106AE61AD6924F0030605F001058B
:100BF0000095334D06EB050CDCF80850A607360FC0
:100C000007FA06F825EA0805DFF8B880404503D161
:100C10004FF0000817E044E0DFF8AC80404502D117
:100C20004FF001080FE0DFF8A480404502D14FF0FB
:100C3000020808E0DFF89880404502D14FF0030831
:100C400001E04FF0040808FA06F848EA0508CCF875
:100C500008804D68D9F80060ED034D4601D5164374
:100C600000E096432E604D68DAF80060AD0355460B
:100C700001D5164300E096432E604D68DBF8006016
:100C8000ED025D4601D5164300E096432E604D68A7
:100C9000DEF80060AD02754601D5164300E09643CC
:100CA0002E60641C0D682A46E5407FF431AFBDE834
:100CB000F88F0000000401400000111000100240F5
:100CC0000000014000080140000C014000100140FC
:100CD000001401400AB1016170470904FBE70000FC
:100CE0000148806870470000B4080020024881680D
:100CF0000278114481607047B4080020074810B59D
:100D0000016841F010010160032000F075F8002037
:100D100000F006F800F024F8002010BD002002408A
:100D200070B50D4D04464FF47A712878B1FBF0F0A0
:100D30000A490968B1FBF0F000F0E8FB48B9102C53
:100D400007D200222146501E00F036F800206C60C9
:100D500070BD012070BD0000B4080020C008002054
:100D60000C4808B5816941F001018161816901F098
:100D700001010091C16941F08051C161C06900F079
:100D8000805000900448416821F0E06141F000711A
:100D9000416008BD0010024000000140002809DB4E
:100DA00000F01F02012191404009800000F1E02085
:100DB000C0F8001170470000F0B40E4B1B680C46E1
:100DC000C3F30223C3F10705042D00D90425191D1F
:100DD000072901D2002300E0DB1E012606FA05F1F7
:100DE000491E214099409E40761E16403143F0BC7A
:100DF00001F0B8BC0CED00E0064900F007020868FD
:100E00004FF6FF03184040EA0220034A10430860EF
:100E1000704700000CED00E00000FA052DE9F041FC
:100E200086B0040004D094F8A902002520B108E09F
:100E3000012006B0BDE8F08184F8A852204600F0F9
:100E40005BF8032084F8A902206801F0F0FB04F1AC
:100E50001001142288466846FFF764F994E80F00F1
:100E600001F0D8FB0226D0BB0021206801F0E6FB90
:100E7000002001270FE000BF00EB800104EBC1015F
:100E800081F8297001F8280FC881CD700D614D617E
:100E9000401CC0B28D6161688142EDD8002011E034
:100EA00000EB800104EBC10181F8695181F8680110
:100EB00081F86B51C1F87851C1F87C51401CC0B227
:100EC000C1F8805161688142EAD8142241466846DF
:100ED000FFF728F994E80F0001F0A0FB10B184F8A7
:100EE000A962A5E784F8245084F8A972206801F06B
:100EF00093FB00209DE7000008B500680649884282
:100F000008D10648C16941F40001C161C06900F41B
:100F10000000009008BD0000005C0040001002408E
:100F20002DE9F84305460078354CC00754D0E069F8
:100F30000026C00008D4E06940F08050E061E0691C
:100F4000012600F0805000902E480168C90512D497
:100F50000168804641F480710160FFF7C1FE0746D9
:100F600005E000BFFFF7BCFEC01B642823D8D8F8FB
:100F70000000C005F6D5206A10F4407021D0A98881
:100F800001F4407181421CD0206A1F49012220F4E3
:100F900040700A6000220A602062C00711D0FFF78B
:100FA0009FFE074641F2883808E000BFFFF798FE31
:100FB000C11B414502D90320BDE8F883206A8007A0
:100FC000F4D5206A696820F44070084320621EB19D
:100FD000E06920F08050E0612878800705D56068DE
:100FE000A96820F44040084360602878C00605D511
:100FF0006068E96820F48000084360600020DBE757
:101000000010024000700040400442422DE9F047C9
:101010000F46050061D0434E306800F00700B8422B
:1010200009D2306820F0070038433060306800F0A3
:101030000700B84251D128683B4C810712D54007C0
:1010400003D5606840F4E06060602878000703D54D
:10105000606840F4605060606068A96820F0F0004B
:10106000084360602878C00728D06868012810D03D
:101070002168022810D0890700292EDA616821F042
:10108000030101436160FFF72BFE804641F288397E
:101090000DE021688903EFE78901EDE7FFF720FE06
:1010A000A0EB0801494502D90320BDE8F08760683C
:1010B000696800F00C00B0EB810FEFD1306800F0F0
:1010C0000700B8420BD9306820F007003843306081
:1010D000306800F00700B84201D00120E5E7287829
:1010E000400705D56068E96820F4E0600843606067
:1010F0002878000706D56068296920F4605040EA26
:10110000C100606000F038F86168084AC1F303115B
:10111000515CC8400649086006480068FFF700FEB9
:101120000020C2E70020024000100240782C000896
:10113000C0080020B8080020044805490068496834
:10114000044AC1F30221515CC8407047C008002026
:1011500000100240882C00080448054900684968CE
:10116000044AC1F3C221515CC8407047C008002046
:1011700000100240882C000813A185B00FC98DE82B
:101180000F0015A0154A00680490516801F00C008A
:10119000042804D0082804D0114805B0704711482D
:1011A000FBE7C1F38343C9031DF8030009D5516868
:1011B00004AAC1F34041515C0A4A5043B0FBF1F02C
:1011C000EBE709494843E8E7020304050607080975
:1011D0000A0B0C0D0E0F101001020000001002404F
:1011E00000127A00001BB70000093D002DE9F84FFE
:1011F000040070D02078C04DC00749D06868C0F3A3
:101200008100012807D06868C0F38100022809D155
:101210006868C00306D52868800339D5606800284F
:10122000E7D035E06068B0F5803F0BD010B1B0F585
:10123000A02F11D0286820F480302860286820F47E
:10124000802002E0286840F480302860606890B117
:10125000FFF746FD06460AE0286840F48020286033
:10126000F0E700BFFFF73CFD801B642873D82868B7
:101270008003F7D50CE0FFF733FD064605E000BF1D
:10128000FFF72EFD801B6428F0D828688003F7D470
:1012900020789A4E80074FF001094FF0000839D5A9
:1012A000686810F00C0F07D06868C0F3810002284E
:1012B00009D16868C00306D42868800714D520695E
:1012C000012808D110E02069B0B1C6F80090FFF7FE
:1012D00007FD074605E00AE1FFF702FDC01B0228F3
:1012E000C4D828688007F7D52868616920F0F8001D
:1012F00040EAC10028600DE0C6F80080FFF7F0FC6E
:10130000074604E0FFF7ECFCC01B022823D828683E
:101310008007F7D4207800072CD57948A169D9B186
:10132000C0F80090FFF7DCFC074604E0FFF7D8FCAC
:10133000C01B02280FD8686A8007F7D571484FF4A0
:10134000FA510068B0FBF1F0009000BF0098411E18
:101350000091FAD20EE080E0C0F80080FFF7C0FCF8
:10136000074604E0FFF7BCFCC01B022875D8686A7A
:101370008007F7D42078400760D5E8690027C000CF
:1013800008D4E86940F08050E861E869012700F07E
:10139000805000905C480168C90513D401688346F9
:1013A00041F480710160FFF79BFC824606E000BFBC
:1013B000FFF796FCA0EB0A0064284ED8DBF800008B
:1013C000C005F5D5E06801280AD008B1052813D07A
:1013D000286A20F001002862286A20F0040002E058
:1013E000286A40F001002862E06841F2883B98B129
:1013F000FFF776FC82460BE0286A40F00400286282
:10140000EEE700BFFFF76CFCA0EB0A0159455AD884
:10141000286A8007F6D50CE0FFF762FC824605E0FB
:10142000FFF75EFCA0EB0A0159454CD8286A8007FB
:10143000F6D41FB1E86920F08050E861E06988B314
:101440006968C1F38101022944D00228C6F860808E
:1014500004D0FFF745FC044638E034E0FFF740FCD9
:10146000074604E0FFF73CFCC01B02282BD8286885
:101470008001F7D4206AB0F5803F05D16868A16883
:1014800020F4003008436860D4E908010843696823
:1014900021F4741108436860C6F86090FFF720FCDF
:1014A000044606E025E000BFFFF71AFC001B0228F7
:1014B00009D828688001F7D51BE000BFFFF710FCB2
:1014C000001B022802D90320BDE8F88F286880019C
:1014D000F4D40EE00128F7D06868226A00F4803165
:1014E000914204D1616A00F47010884201D0012059
:1014F000EAE70020E8E70000001002400000424256
:1015000080044242C00800200070004010B5401E18
:10151000B0F1807F01D3012010BD4FF0E024606165
:101520000F21601701F01EF90020A0610720206143
:10153000002010BD70B590F83C20012A26D001246F
:1015400080F83C40022280F83D2003685A689D687C
:1015500022F070060A6832435A600D4B02689A42C4
:1015600008D0B2F1804F05D00A4B9A4202D00A4B04
:101570009A4204D1496825F080031943916080F8AC
:101580003D40002180F83C10084670BD022070BD2F
:10159000002C0140000400400008004010B5040089
:1015A00003D094F83D0010B107E0012010BD0020E9
:1015B00084F83C00204600F01FF8022084F83D002B
:1015C000211D206800F02CFF012084F8460084F8DB
:1015D0003E0084F83F0084F8400084F8410084F81D
:1015E000420084F8430084F8440084F8450084F8FD
:1015F0003D00002010BD000008B50068B0F1804F2C
:1016000008D10548C16941F00101C161C06900F01C
:101610000100009008BD00000010024070B50446B3
:1016200090F83C00012817D0012584F83C50022096
:1016300084F83D002068826822F0770222F47F421D
:1016400082600868502830D00DDC20284DD005DCA1
:1016500098B310283BD148E0022070BD302844D018
:10166000402834D139E0602828D0702806D0B0F561
:10167000805F2CD0B0F5005F29D10AE0CB68D1E9BA
:101680000121206800F002FF2068816841F07701A5
:1016900009E0CB68D1E90121206800F0F7FE20685D
:1016A000816841F48041816011E0CA68496820681E
:1016B00000F0FEFE5021206807E016E0CA68496885
:1016C000206800F006FF6021206800F0E9FE84F841
:1016D0003D50002084F83C0070BDCA68496820680D
:1016E00000F0E6FE40212068EFE722680146104640
:1016F000EBE770B5040004D094F83900002510B170
:1017000006E0012070BD84F83850204600F022F831
:10171000242084F839002068C16821F40051C16098
:10172000204600F0E9FE2068016921F49041016142
:101730002068416921F02A0141612068C16841F4B3
:101740000051C160E563202084F8390084F83A0034
:10175000002070BD30B585B000240094019402943F
:10176000039400681449884224D11448816941F4E3
:1017700080418161816901F480410491816941F076
:101780000401816180690E4D00F0040004904FF463
:1017900000700090022001900320039069462846C3
:1017A000FFF7A8F92815CDE90004694628460294F8
:1017B000FFF7A0F905B030BD00380140001002402D
:1017C000000801402DE9F843044690F839001F460F
:1017D00016460D4620284CD1C5B1BEB194F838004C
:1017E000012846D0012084F838004FF00008C4F8E2
:1017F0003C80212084F83900FFF772FAA6848146E4
:10180000E684A068B0F5805F03D004E00120BDE865
:10181000F883206928B12E465FF0000584F83880EF
:101820000EE00026FAE78021204600F0C1FEA0B9B4
:10183000AEB116F8010B21684860E08C401EE084D0
:10184000E08C4B464FF0000200970028EBD14FF0A0
:101850004001204600F0ACFE30B10320D7E735F858
:10186000020BC0F30800E6E7202084F839000020CE
:10187000CDE70220CBE7FEE7FEB50025394800950D
:10188000019537490295016089158160012404732F
:101890000575092606614FF460214560C161FEF7B8
:1018A000A3FE08B1FEF788FDCDE9005469462D4836
:1018B0000294FEF7A5FD08B1FEF77EFD0094022418
:1018C000694628480194FEF79BFD08B1FEF774FDB8
:1018D00000940324694623480194FEF791FD08B162
:1018E000FEF76AFD0094042469461E480194FEF741
:1018F00087FD08B1FEF760FD00940524694619488C
:101900000194FEF77DFD08B1FEF756FD0094062414
:10191000694614480194FEF773FD08B1FEF74CFDCB
:101920000094072469460F480194FEF769FD08B149
:10193000FEF742FD0094082469460A480194FEF728
:101940005FFD08B1FEF738FDCDE900466946054860
:10195000FEF756FD002801D0FEF72EFDFEBD00006B
:101960000024014068090020094808B5416941F098
:10197000010141614069002200F001000090114620
:101980000B20FFF719FABDE808400B20FFF706BA55
:10199000001002402DE9F04385B00026294800964A
:1019A000019602960396816941F010018161816977
:1019B00001F010010491816941F020018161816988
:1019C00001F020010491816941F004018161816984
:1019D00001F004010491816941F00801816180698D
:1019E000DFF8648000F008004FF4005404900022F7
:1019F00021464046FFF76EF9DFF850904FF2E0378E
:101A0000002239464846FFF765F900940124022573
:101A1000CDE90145694640460395FFF76BF8A00202
:101A2000CDE90006694602944846FFF763F8CDE920
:101A3000007469464846CDE90245FFF75BF805B0FA
:101A4000BDE8F0830010024000100140000C01408E
:101A500010B586B0002416480094019402940394B3
:101A600004944FF080410594C0E900144FF6FF71D3
:101A7000C0E9024104618461FFF790FD08B1FEF7FF
:101A80009BFC4FF48050009069460948FFF7C6FD63
:101A900008B1FEF791FC049404A905480594FFF7EA
:101AA00049FD002801D0FEF787FC06B010BD0000FC
:101AB000DC0900200C4810B50A4901604FF461416F
:101AC0004160002181600C22C160C0E90412816183
:101AD000C161FFF70EFE002803D0BDE81040FEF7FD
:101AE0006BBC10BD00380140240A00200B4810B523
:101AF0000949016008214160022181600021816162
:101B0000C1610162FFF78AF9002803D0BDE81040E7
:101B1000FEF752BC10BD0000005C0040640A0020CB
:101B2000FEE7FEE710B52C4C002280212046FFF78F
:101B3000D1F80120FEF72AFC012280212046FFF780
:101B4000C9F8012280212046FFF7C4F8122000F0D6
:101B500055F8B12000F052F8002000F093F8F12081
:101B600000F068F87F2000F072F9002000F080F8A3
:101B7000002000F0ACF9742000F091F9002000F092
:101B80008FF8012000F082F8A02000F0B4F9C822FC
:101B90008021104600F03CF80F2000F04EF900F0D4
:101BA00089F8322000F05DF9172000F06EF9A420CA
:101BB00000F04AF8012000F05EF9052000F091F9EC
:101BC000022000F051F800210846FEF7F7FBBDE8BF
:101BD0001040012000F056B8000C014070477047DB
:101BE00070B504460D46152000F02CFD204600F08F
:101BF00067FD2846BDE8704000F062BD10B50446A0
:101C0000FD2000F01FFD2046BDE8104000F058BD4B
:101C100070B5044615460E46C12000F013FD20465F
:101C200000F04EFD304600F04BFD2846BDE8704008
:101C300000F046BD10B50446B32000F003FD204679
:101C4000BDE8104000F03CBD10B50446B22000F0E5
:101C5000F9FC204600F034FD002000F031FDBDE825
:101C60001040002000F02CBD40F0A40000F0EABCC1
:101C700010B50446A22000F0E5FC2046BDE8104067
:101C800000F01EBD40F0AE0000F0DCBC10B5044614
:101C9000AB2000F0D7FC2046BDE8104000F010BD9E
:101CA00010B50446B52000F0CDFC2046BDE810403C
:101CB00000F006BD10B5B82000F0C4FC022000F012
:101CC000FFFC032000F0FCFC042000F0F9FC0520E0
:101CD00000F0F6FC062000F0F3FC072000F0F0FC1A
:101CE000082000F0EDFC092000F0EAFC0A2000F0DA
:101CF000E7FC0B2000F0E4FC0C2000F0E1FC0D20E0
:101D000000F0DEFC0E2000F0DBFC0F2000F0D8FC21
:101D1000102000F0D5FC112000F0D2FC122000F0C1
:101D2000CFFC132000F0CCFC152000F0C9FC1720DC
:101D300000F0C6FC192000F0C3FC1B2000F0C0FC22
:101D40001D2000F0BDFC1F2000F0BAFC212000F097
:101D5000B7FC232000F0B4FC252000F0B1FC2720C4
:101D600000F0AEFC2A2000F0ABFC2D2000F0A8FC17
:101D7000302000F0A5FC332000F0A2FC362000F05B
:101D80009FFC392000F09CFC3C2000F099FC3F2097
:101D900000F096FC422000F093FC452000F090FCFF
:101DA000482000F08DFC4C2000F08AFC502000F010
:101DB00087FC542000F084FC582000F081FC5C205B
:101DC00000F07EFC602000F07BFC642000F078FCDA
:101DD000682000F075FC6C2000F072FC702000F0B0
:101DE0006FFC742000F06CFC782000F069FC7D2012
:101DF00000F066FC822000F063FC872000F060FCAD
:101E00008C2000F05DFC912000F05AFC962000F040
:101E100057FC9B2000F054FCA02000F051FCA520B2
:101E200000F04EFCAA2000F04BFCAF2000F048FC74
:101E3000BDE81040B42000F043BC10B50446C720F4
:101E400000F000FC2046BDE8104000F039BC10B5A1
:101E50000446CA2000F0F6FB2046BDE8104000F022
:101E60002FBC10B50446B12000F0ECFB2046BDE8C5
:101E7000104000F025BC10B50446B62000F0E2FB8F
:101E80002046BDE8104000F01BBC10B50446BB2046
:101E900000F0D8FB2046BDE8104000F011BC10B5A2
:101EA0000446A02000F0CEFB2046BDE8104000F024
:101EB00007BC70B504460D46752000F0C3FB2046F4
:101EC00000F0FEFB2846BDE8704000F0F9BB10B5FD
:101ED0000446A12000F0B6FB2046BDE8104000F00B
:101EE000EFBB10B50446BE2000F0ACFB2046BDE8B9
:101EF000104000F0E5BB10B50446B42000F0A2FB92
:101F000044F0A00000F0DCFBB52000F0D9FBBDE8F8
:101F10001040552000F0D4BB2DE9F05F2039C9B244
:101F2000DDF828B01C46154601EB8101012802D0DE
:101F3000022805D101E0824800E0824801EB000858
:101F40007520FFF7ACFF0B98002700F1070A00BFD0
:101F50000BEB0700C1B298F80060C0B2FFF740FE7B
:101F60000AF0FF010B98FFF7A4FF5C2000F06AFB6A
:101F700006F0010040EA400141EA800141EAC00167
:101F800041EA001141EA401141EA801141EAC019D9
:101F900005EA090000F094FB04EA090000F090FB58
:101FA000C6F3400040EA400141EA800141EAC00135
:101FB00041EA001141EA401141EA801141EAC019A9
:101FC00005EA090000F07CFB04EA090000F078FB58
:101FD000C6F3800040EA400141EA800141EAC001C5
:101FE00041EA001141EA401141EA801141EAC01979
:101FF00005EA090000F064FB04EA090000F060FB58
:10200000C6F3C00040EA400141EA800141EAC00154
:1020100041EA001141EA401141EA801141EAC01948
:1020200005EA090000F04CFB04EA090000F048FB57
:1020300006F01000C00040EA500141EA900141EA78
:10204000D00141EA101141EA501141EA901141EAF0
:10205000D01905EA090000F033FB04EA090000F09A
:102060002FFB06F02000800040EA500141EA900179
:1020700041EAD00141EA101141EA501141EA9011C0
:1020800041EAD01905EA090000F01AFB04EA090048
:1020900000F016FB06F04000400040EA500141EA23
:1020A000900141EAD00141EA101141EA501141EAA0
:1020B000901141EAD01905EA090000F001FB04EA99
:1020C000090000F0FDFA06F0800040EA500141EA04
:1020D000900141EAD00141EA101141EA501141EA70
:1020E000901141EAD01605EA060000F0E9FA04EA88
:1020F000060000F0E5FA7F1CFFB208F10108052F89
:102100007FF626AF0BF10500C1B2C0B2FFF768FD44
:102110000AF0FF010B98FFF7CCFE5C2000F092FA6A
:102120000024002000F0CCFA002000F0C9FA641C62
:10213000E4B2082CF5D9BDE8F05F7420FFF7AFBE1C
:1021400000000020B50400202DE9F05F0D46834912
:1021500000EB8000084400F150089B4614467520AF
:10216000FFF79DFE0A98002700F1070A0BEB070016
:10217000C1B298F80060C0B2FFF732FD0AF0FF016B
:102180000A98FFF796FE5C2000F05CFA06F001006A
:1021900040EA400141EA800141EAC00141EA001100
:1021A00041EA401141EA801141EAC01905EA0900FB
:1021B00000F086FA04EA090000F082FAC6F3400053
:1021C00040EA400141EA800141EAC00141EA0011D0
:1021D00041EA401141EA801141EAC01905EA0900CB
:1021E00000F06EFA04EA090000F06AFAC6F3800013
:1021F00040EA400141EA800141EAC00141EA0011A0
:1022000041EA401141EA801141EAC01905EA09009A
:1022100000F056FA04EA090000F052FAC6F3C000D2
:1022200040EA400141EA800141EAC00141EA00116F
:1022300041EA401141EA801141EAC01905EA09006A
:1022400000F03EFA04EA090000F03AFA06F0100045
:10225000C00040EA500141EA900141EAD00141EA60
:10226000101141EA501141EA901141EAD01905EAF2
:10227000090000F025FA04EA090000F021FA06F04E
:102280002000800040EA500141EA900141EAD0017B
:1022900041EA101141EA501141EA901141EAD01986
:1022A00005EA090000F00CFA04EA090000F008FA57
:1022B00006F04000400040EA500141EA900141EA46
:1022C000D00141EA101141EA501141EA901141EA6E
:1022D000D01905EA090000F0F3F904EA090000F05A
:1022E000EFF906F0800040EA500141EA900141EA2E
:1022F000D00141EA101141EA501141EA901141EA3E
:10230000D01605EA060000F0DBF904EA060000F04A
:10231000D7F97F1CFFB208F10108052F7FF626AF21
:102320000BF10500C1B2C0B2FFF75AFC0AF0FF0181
:102330000A98FFF7BEFD5C2000F084F9002400201D
:1023400000F0BEF9002000F0BBF9641CE4B2082CD8
:10235000F5D9BDE8F05F7420FFF7A1BD00000020B3
:102360002DE9FC478146DDE90A56CDE900560C46C9
:102370001F46904660210120FFF7CEFDCDE90056B3
:1023800021783B4642464846FFF7C6FDAD1D14F88E
:10239000010FEDB20028F1D1BDE8FC87FEF7A6BC25
:1023A00030B593B028216846FDF7D5FE14210AA860
:1023B000FDF7D1FE0024012108040F941094CDE90B
:1023C0000010119442001294029202250491CDE96A
:1023D0000750000109906846FEF708FF08B172B681
:1023E000FEE70F20CDE90A054FF48060CDE90C40EF
:1023F00002210AA80E94FEF709FE08B172B6FEE7A4
:1024000012200F904FF40040CDE911040FA8FEF701
:1024100087FD002801D072B6FEE713B030BD7047CB
:10242000F0B50268164B174C174D4FF08047984295
:1024300005D0B84203D0A04201D0A84203D122F077
:1024400070064A683243984205D0B84203D0A04291
:1024500001D0A84203D122F44074CA6822434C69D7
:1024600022F08002224302608A68C2620A688262A5
:10247000984201D10969016301214161F0BD000069
:10248000002C0140000400400008004010B58468A2
:1024900042EA032224F47F440A432243826010BDAF
:1024A000826822F070020A4342F00701816070479F
:1024B00010B5036A046A24F001040462846924F0FC
:1024C000F00444EA021423F00A020A43846102621F
:1024D00010BD10B5036A23F0100303628369046A18
:1024E00023F4704343EA023224F0A00343EA0111CB
:1024F0008261016210BD000070B504460068016988
:10250000E26821F44051114301612169A068084348
:10251000616908432168CA6841F20C639A43024327
:10252000CA6020684169A26921F440711143416188
:102530001E492068884202D1FEF70EFE01E0FEF738
:10254000FBFD00EBC00101EB00126068642180001C
:10255000B2FBF0F3B3FBF1F36FF018067343B2FB79
:10256000F0F5B2FBF0F605EB8305322303EB05151E
:10257000B5FBF1F5B6FBF1F605F0F00505EB061538
:10258000B2FBF0F6B2FBF0F0B0FBF1F06FF0180226
:10259000504306EB800003EB0010B0FBF1F0216824
:1025A00000F00F002844886070BD00000038014032
:1025B0002DE9F041984617460E460446069D1DE05B
:1025C000681C1BD02DB1FEF78BFBA0EB0800A842C6
:1025D00014D92068C16821F4D071C16020684169B4
:1025E00021F001014161202084F8390084F83A008B
:1025F000002084F838000320BDE8F08120680068DE
:1026000036EA000004D00020B842D9D00020F3E719
:102610000120F9E70020704700207047012120F8D1
:10262000401F00210180818001820846704730F8F8
:10263000401F21F43F410180002070470020704777
:10264000FEE700002DE9F0411C4E05460022202146
:102650003046FEF73FFB0120401EC0B2FCD20022F4
:1026600040213046FEF736FB00244FF480784FF4CB
:102670000077002239463046FEF72CFB280601D5AC
:10268000012200E0002241463046FEF723FB6806A7
:10269000050E012239463046FEF71CFB0020401E85
:1026A000C0B2FCD2641CE4B2082CE2D33046BDE8D0
:1026B000F04101224021FEF70DBB0000000C01405B
:1026C0002DE9F0411E4E0546002220213046FEF73E
:1026D00001FB0120401EC0B2FCD201224021304645
:1026E000FEF7F8FA0020401EC0B2FCD200244FF4DE
:1026F00080784FF40077002239463046FEF7EAFA38
:10270000280601D5012200E0002241463046FEF7AE
:10271000E1FA6806050E012239463046FEF7DAFA7C
:102720000020401EC0B2FCD2641CE4B2082CE2D3EC
:102730003046BDE8F04101224021FEF7CBBA00004F
:10274000000C01400FB4054B10B503A9044A0298D0
:1027500000F028F810BC5DF814FB0000F928000810
:10276000C40800200907090E002804DB00F1E0205E
:1027700080F80014704700F00F0000F1E02080F8AE
:10278000141D704702E008C8121F08C1002AFAD1C0
:1027900070477047002001E001C1121F002AFBD1E1
:1027A000704700002DE9FF4F89B09B460446002585
:1027B00006E025280BD05A460B999047641C6D1CE7
:1027C00020780028F5D10DB02846BDE8F08F00270D
:1027D000B8460122474900E0074314F8013F203B77
:1027E00002FA03F00842F7D120782E2819D114F804
:1027F000010F47F004072A280ED06FF02F0220782F
:10280000A0F1300109290CD808EB880102EB410145
:1028100000EB0108641CF2E70A98641C50F8048B72
:102820000A9020780028CED0642808D0692806D0E5
:1028300075281ED05A460B9990476D1C58E00A998E
:102840004FF00A0901C90A91002802DA40422D21FD
:1028500002E0390504D52B218DF82010012103E079
:10286000F90704D02021F7E78A4608AE0DE00021E1
:10287000FAE70A994FF00A0901C90A91F7E74946B0
:10288000FDF774FC303106F8011D0028F7D1ADEBDF
:10289000060000F12009780701D44FF00108C8456F
:1028A00002DDA8EB090000E000208046002706E0DA
:1028B00008A85A46C05D0B9990476D1C7F1C574570
:1028C000F6DB04E030205A460B9990476D1CB8F1B6
:1028D0000001A8F10108F5DC05E016F8010B5A46E5
:1028E0000B9990476D1CB9F10001A9F10109F4DCC5
:1028F000641C65E70928010013B54FF6FF73012238
:1029000069460248FEF75EFF00981CBD240A0020BD
:102910001CB50026FEF7F2F9FFF742FDFFF73AF883
:10292000FFF722F8FEF7A8FF082272497248FDF768
:102930004BFFFFF7BFF8FFF78BF8FFF7D7F8FFF76C
:10294000F1F800210846FDF739FD002400942346E4
:10295000F8226AA101200194FFF702FD4FF00E0951
:102960001920CDE900094F467023F82266A1012005
:10297000FFF7F6FC3925CDE900577023F82263A153
:102980000120FFF7EDFC2020CDE900407023072255
:102990005FA10120FFF7E4FC4FF02E0B1627CDE9D5
:1029A000007B7023F8225DA10120FFF7D9FCCDE95F
:1029B000005B7023F82255A10120FFF7D1FC4020D5
:1029C000CDE900401F23002255A10120FFF7C8FCDC
:1029D0004FF04E0ACDE9007A7023F8224FA1012072
:1029E000FFF7BEFCCDE9005A7023F82247A1012071
:1029F000FFF7B6FC6020CDE90040FF231A464BA14B
:102A00000120FFF7ADFC4FF06E08CDE90078444699
:102A10007023F82241A10120FFF7A2FCCDE9005468
:102A20007023F82239A10120FFF79AFC42A0FFF79A
:102A300089FE304D203D00204FEA000145F820106E
:102A4000401C0828FADB2B4F002400BF57F8242035
:102A5000611C3CA0FFF776FE641C082CF6DB3CA052
:102A6000FFF770FECDF800904C460F237022FF2137
:102A7000286800F06FF800943223FF22072168686D
:102A800000F068F8CDF800B05C460F237022FF21FB
:102A9000A86800F05FF800943223FF220721E8685D
:102AA00000F058F8CDF800A054460F237022FF2103
:102AB000286900F04FF800943223FF22072168694B
:102AC00000F048F8CDF8008044460F237022FF2123
:102AD000A86900F03FF800943223FF220721E8693B
:102AE00000F038F8761CA6F51C501038A3D100264B
:102AF000A1E70000E8080020680900203132565F95
:102B00004F75747075740000560000006D41000030
:102B100035565F4F75747075740000006D56000077
:102B2000332E33565F4F757470757400312E3856DE
:102B30005F4F757470757400737461727421200D29
:102B40000A0D0A0025642D3E2564202000000000A7
:102B50000D0A00002DE9FF4F81B01E460E9D044670
:102B60000A2805DADDE90212E0B20095FFF7ECFA77
:102B7000A4F10A00771F4FF00A09592813D894FBD3
:102B8000F9F0DDE90212C0B2FBB20095FFF7DCFA02
:102B900094FBF9F109FB1140DDE90212C0B23346A2
:102BA0000095FFF7D1FAA4F164014FF0640BA6F190
:102BB0000A08B1F5617F22D2DA4694FBFAF0DDE92A
:102BC0000212C0B208F0FF030095FFF7BDFA94FBB4
:102BD000FAF10AFB114191FBF9F0DDE90212C0B2F2
:102BE000FBB20095FFF7B0FA94FBF9F109FB114035
:102BF000DDE90212C0B233460095FFF7A5FAA4F54D
:102C00007A7042F22731884233D84FF47A7A94FBB3
:102C1000FAF0A6F10F01CBB2DDE90212C0B20095C5
:102C2000FFF792FA94FBFAF10AFB1141DA4691FBA5
:102C3000FAF0DDE90212C0B208F0FF030095FFF7D9
:102C400083FA94FBFAF10AFB114191FBF9F0DDE9FB
:102C50000212C0B2FBB20095FFF776FA94FBF9F1CD
:102C600009FB1140DDE90212C0B233460095FFF7BF
:102C70006BFA05B0BDE8F08F000000000000000016
:102C80000102030406070809000000000102030412
:102C9000B02C000800000020C8080000BC0100089B
:102CA00094330008C8080020880800009427000812
:102CB00071324F1A07021B147F021010242A7F2A38
:102CC0001223130864623649552250330503241C2D
:102CD00022411441221C1F14083E08140805120842
:102CE0002350302A080111236060100B20100804C3
:102CF000023E5149453E14427F40102942615149EC
:102D0000462141454B311814127F1027454545395E
:102D10003C4A49493001710905033649494936069B
:102D20004949291E3336361A56051B0814642A14DD
:102D30000119692813140802015109063249794121
:102D40003E7E1111117E7F321F3E414141227F04A0
:102D50002A1C0F180D417F090909013E4149497A92
:102D60007F86127F14417F412F2040413F017F4CDD
:102D70001B7F4001280B7F020C027F7F0408107F1D
:102D80003C2A3E32180D063E4151215E7F09192929
:102D900046464618083101017F01013F2C18163FB5
:102DA0001F2040201F3F4038403F63140814630732
:102DB00008700807C71345431974111A02461220F8
:102DC0001441417F2E04020102045E1A400819FAE0
:102DD000180F545454787F484444383844444420AD
:102DE000051C487F38141F18087E090102E61008E8
:102DF000493F7F080404781C447D40A013443D25CE
:102E00007F10284419A2112F7C0418047C7C1E29F1
:102E10003C1B387CFE3E0808141418141B08484656
:102E2000180D20043F4440203C4040207C1CA0184A
:102E3000091C3C4030403C442842100B0C50505080
:102E40003C4464544C4434083641327F14413608C3
:102E5000299F77023E555541222279201518247466
:102E60002E24487E4942405D2222225D15167C16A2
:102E7000152277160A555555281A010211180B0A02
:102E80000D0A0408142A14220401121C140808084C
:102E90002A010111140205021D44445F44B519FCC6
:102EA00018097E2020103E060F7F703318183C4012
:102EB00050203C111A223C2822081708342A7D177A
:102EC00008046A5930484540207029262870702827
:102ED000262970702A252A7072290A2B29240F4866
:102EE000132D2A707E117F49490E515171117C5565
:102EF000565444051C5655560A145455441B457ED9
:102F00007224447E4524467D4614457C451930385C
:102F100016413E7C0A11227D3845464438384446E5
:102F20004538384645460518353938454445382230
:102F3000140814222E5149453A3C4142403C3C4041
:102F400042413C3C4241423C3C4140413C0C1062CD
:102F5000110C7F1212120C403E01493620731808E2
:102F600078205456557820781A780F190A197D1947
:102F70000F180F57567824547854580C5252721325
:102F800038281B1838281B1838281B183823121803
:102F900024497A4024487A411C4A794205137842F0
:102FA0003819314A4E4A307A110A097030494A4874
:102FB0003030484A4930304A494A05181F31304AB2
:102FC000484A3008082A08083864544C38384142C6
:102FD000207838404221783842412205281D40227D
:102FE000780C5052513C7E141414080C5150513C32
:102FF0001E0909295E081515354EEB2A20501A20A6
:10300000FA190A1A490A1A7C0A1808382050507C02
:10301000031F231B510E051B467CC31A44AF19A086
:1030200014447C40167F4844404014497F441808AB
:103030007C0812217C78109B2B7C090A29A5281A70
:103040003847444738304B484B303E417F49493838
:10305000443854587C151635481E1B1048F01C2067
:103060002048051A48501C20204905102D04057ED3
:103070000504083C4822013C4245423C3842452276
:10308000783C4340433C38434023780C1160110C9A
:103090004466554C44486A59482B44640A1B685A94
:1030A0000A200965564D4448695A49240201021C08
:1030B000010201051B010109290A1129042C02053D
:1030C000021D120118147F05153A503E5555412234
:1030D000181408140C444A4A510150094A4A4474CD
:1030E000424142741E7E1111117EB2280D49367F75
:1030F00002010103704E414E700F180D416151499C
:1031000045437F0808087F3E0F123E14417F411857
:10311000317F08142241700E010E707F020C027F75
:103120007F0408107F635D495D633E4141413E413C
:103130003F013F417F0909090663554941410101AA
:103140007F51180B017E010308557F5508638210DB
:10315000256307487F48075E6101615E3844483057
:103160004C7C2A2A2A144438040408304B4D593028
:103170002854544420100F185552223E0402027C59
:103180003C4A4A4A3C143C4020182D7C10284440BC
:1031900041320C30407E2020103E1C2040201C1468
:1031A0002B2A2A603844444438443C047C44702828
:1031B0002424180C121252141E4C5424043C4A1B92
:1031C0003C4028180818247E241844284210190C62
:1031D000107E100C38443044380A0A4A2A1E04442F
:1031E00034140C20107804181618084C4838484835
:1031F0007848484828187C08087C08281840101689
:10320000405454547C12182D5840380801182F018E
:10321000413D090710087C02010E0243221E424272
:103220007E424222120A7F02423F02423E0A0A7F47
:103230000A0A084642221E0403423E0242011809BD
:103240007E024F221F024A4A87192910182A460275
:103250003F424A46064840201E08464A321E0A4A55
:103260003E09080E10094E201E04453D0504147F3A
:1032700008101F44241F0404403C100C40422A1232
:103280002A0622127B16221440201F12781D0204E7
:10329000783FF01A445B1964100F020408303202C0
:1032A0007F0232021222520E180B2A2A2A40382498
:1032B00022207040EB180C060A3E4A4A4A047F045A
:1032C000140C4B1B7E400D28094A7E040545251C25
:1032D0000F4B127C18097E40307E40201008C11D23
:1032E000427E0E02501971172018020401022407B1
:1032F00005071011F804030101030EF01F204080A0
:1033000080C0300F540404FE268080FF80802B1E76
:1033100001011012C23CE0D0C8C4C2C1C0F81E02F4
:10332000018181423C1B7880011481413E26C030DE
:103330000C02FF10090704048484FF8484180AFF28
:10334000834343438303788120280EC0603FE09C81
:10335000C243414181061F6131200B403F0E0303F0
:10336000C3330B07011AFE0421180B3C62C1818193
:1033700041623C3C434F2E81433CFC0670180A8658
:10338000F860818282C26138A201FF01423201826B
:04339000105324F4BE
:04000005080000ED02
:00000001FF
