:020000040800F2
:10000000C8070020010100088F13000881110008B3
:100010008D130008DD010008D51500080000000060
:100020000000000000000000000000009313000822
:10003000DF0100080000000091130008951300087C
:100040001B0100081B0100081B0100081B01000820
:100050001B0100081B0100081B0100081B01000810
:100060001B0100081B0100081B0100081B01000800
:100070001B0100081B0100081B0100081B010008F0
:100080001B0100081B0100081B0100081B010008E0
:100090001B0100081B0100081B0100081B010008D0
:1000A0001B0100081B0100081B0100081B010008C0
:1000B0001B0100081B0100081B0100081B010008B0
:1000C0001B0100081B0100081B0100081B010008A0
:1000D0001B0100081B0100081B0100081B01000890
:1000E0001B0100081B0100081B010008DFF80CD0F1
:1000F00000F03CF80048004715160008C80700202B
:100100000648804706480047FEE7FEE7FEE7FEE7B1
:10011000FEE7FEE7FEE7FEE7FEE7FEE7171400084E
:10012000ED00000840EA01039B0703D009E008C97D
:10013000121F08C0042AFAD203E011F8013B00F8AC
:10014000013B521EF9D27047D2B201E000F8012BF8
:10015000491EFBD270470022F6E710B513460A4647
:1001600004461946FFF7F0FF204610BD064C074D28
:1001700006E0E06840F0010394E807009847103477
:10018000AC42F6D3FFF7B6FF501600087016000811
:1001900070B5044600688168C943C9071CD18168ED
:1001A00021F00101816000F05DFA05460FE000BF1B
:1001B00000F058FA401B022809D9A06A40F010004C
:1001C000A062E06A40F00100E062012070BD20689A
:1001D0008068C043C007EBD0002070BDFEE77047C9
:1001E00072B6FEE7F8B50024009490F82420254666
:1001F000012A12D0012280F824204A681F23072AEE
:100200000DD20668776B521E02EB820293409F4329
:100210000B6893401F43776319E00220F8BD06681E
:100220000D2A0AD2376BD21F02EB820293409F4302
:100230000B6893401F43376309E0F76A0D3A02EBFE
:10024000820293409F430B6893401F43F7620A6802
:10025000072306680A2A0AD3F7680A3A02EB420221
:1002600093409F438B6893401F43F76008E03769D2
:1002700002EB420293409F438B6893401F433761D8
:100280000A68102A01D0112A20D1124B02689A4222
:1002900017D193681B0219D4936843F40003936049
:1002A0000968102912D10C490C4A0968B1FBF2F116
:1002B00001EB8101490000E0491E00910029FBD1BA
:1002C00004E0816A41F020018162012480F8245019
:1002D0002046F8BD002401400C00002040420F00E1
:1002E0002DE9F0414FF0000704003D467ED0A06AA2
:1002F000002628B9E66284F82460204600F07EF8E3
:100300002046FFF745FFA16AC90600D420B1A06AC4
:1003100040F01000A06269E0A16A21F4885141F028
:100320000201A1626268E169237B0A4347EA430153
:100330000A43A1684FF48077B94209D0012907D058
:100340005FF0000194F814C0BCF1010F02D00AE084
:100350003946F7E7F3B1A36A43F02003A362E36AE7
:1003600043F00103E3622368D3F804C02CF4694C22
:100370004CEA010CC3F804C021688B68DFF870C038
:1003800003EA0C0313438B60A168B9420BD0012927
:1003900009D00CE0DFF85CC0A3690CEB43330B43DE
:1003A00043F40061DFE7218A0D05A5F5801521687A
:1003B000CB6A23F470032B43CB62216889680E4B10
:1003C0001940914208D1E662A16A21F0020141F090
:1003D0000101A162BDE8F081A06A20F0020040F0B6
:1003E0001000A062E06A40F00100E0620120F1E745
:1003F000FDF7E1FF00E0FFFFFE0E1FFF10B586B026
:1004000000210091019102910391006816498842F0
:1004100027D11648816941F400718161816901F435
:1004200000710491816941F004018161816901F0E9
:1004300004010491816941F008018161806903240C
:1004400000F008000490FF20CDE900046946084848
:1004500000F012F80120CDE900046946054800F0DB
:100460000BF806B010BD000000240140001002404F
:1004700000080140000C01402DE9F84FDFF8B89169
:10048000002409F1040A0AF1040B23460F270BF19B
:10049000040EC9E00125A5402A40AA427DD1674E3D
:1004A000D1F804C0ACEB0608B44532D014DCBCF182
:1004B000030F3AD009DCBCF1000F2AD0BCF1010FC8
:1004C0001CD0BCF1020F31D11DE0BCF1110F17D0CF
:1004D000BCF1120F2AD119E0B8F5881F19D006DC3B
:1004E000B8F5803F15D0B8F5801F1FD111E0B8F5E1
:1004F000001F0ED0B8F5041F18D10AE0CB6815E034
:10050000CB681B1D12E0CB6808330FE0CB680C33BF
:100510000CE08B682BB1012B4FF0080303D0456131
:1005200004E0042302E0056100E00023FF2A01D873
:10053000064601E000F104064FEA840501D9A5F161
:100540002005D6F8008007FA05FC28EA0C0803FA13
:1005500005F548EA0508C6F800804D68ED0062D54B
:10056000374DAE6946F00106AE61AD6924F0030671
:1005700005F001050095334D06EB050CDCF808503D
:10058000A607360F07FA06F825EA0805DFF8B8804F
:10059000404503D14FF0000817E044E0DFF8AC809D
:1005A000404502D14FF001080FE0DFF8A48040453C
:1005B00002D14FF0020808E0DFF89880404502D1F0
:1005C0004FF0030801E04FF0040808FA06F848EA83
:1005D0000508CCF808804D68D9F80060ED034D4659
:1005E00001D5164300E096432E604D68DAF80060AE
:1005F000AD03554601D5164300E096432E604D6885
:10060000DBF80060ED025D4601D5164300E096433D
:100610002E604D68DEF80060AD02754601D51643C8
:1006200000E096432E60641C0D682A46E5407FF486
:1006300031AFBDE8F88F0000000401400000111048
:10064000001002400000014000080140000C014081
:1006500000100140001401400AB101617047090413
:10066000FBE70000014880687047000000000020A0
:1006700002488168027811448160704700000020C0
:10068000074810B5016841F010010160032000F037
:1006900067F8002000F006F800F024F8002010BDF4
:1006A0000020024070B50D4D04464FF47A71287851
:1006B000B1FBF0F00A490968B1FBF0F000F0DAFB99
:1006C00048B9102C07D200222146501E00F028F80D
:1006D00000206C6070BD012070BD00000000002093
:1006E0000C0000200C4808B5816941F001018161CE
:1006F000816901F001010091C16941F08051C1613E
:10070000C06900F0805000900448416821F0E06129
:1007100041F00071416008BD00100240000001403E
:10072000F0B40E4B1B680C46C3F30223C3F107055C
:10073000042D00D90425191D072901D2002300E04A
:10074000DB1E012606FA05F1491E214099409E4014
:10075000761E16403143F0BC00F03DBF0CED00E0CA
:10076000064900F0070208684FF6FF03184040EA08
:100770000220034A10430860704700000CED00E0BF
:100780000000FA052DE9F04186B0040004D094F889
:10079000A902002520B108E0012006B0BDE8F081E3
:1007A00084F8A852204600F05BF8032084F8A902E0
:1007B000206800F006FF04F1100114228846684604
:1007C000FFF7B0FC94E80F0000F0EEFE0226D0BB6D
:1007D0000021206800F0FCFE002001270FE000BF90
:1007E00000EB800104EBC10181F8297001F8280FAA
:1007F000C881CD700D614D61401CC0B28D616168D2
:100800008142EDD8002011E000EB800104EBC10132
:1008100081F8695181F8680181F86B51C1F878510C
:10082000C1F87C51401CC0B2C1F88051616881425E
:10083000EAD8142241466846FFF774FC94E80F009A
:1008400000F0B6FE10B184F8A962A5E784F8245040
:1008500084F8A972206800F0A9FE00209DE700003E
:1008600008B500680649884208D10648C16941F4C4
:100870000001C161C06900F40000009008BD0000E3
:10088000005C0040001002402DE9F8430546007866
:10089000354CC00754D0E0690026C00008D4E06998
:1008A00040F08050E061E069012600F08050009047
:1008B0002E480168C90512D40168804641F4807150
:1008C0000160FFF7CFFE074605E000BFFFF7CAFE55
:1008D000C01B642823D8D8F80000C005F6D5206ACC
:1008E00010F4407021D0A98801F4407181421CD0DD
:1008F000206A1F49012220F440700A6000220A6029
:100900002062C00711D0FFF7ADFE074641F28838DC
:1009100008E000BFFFF7A6FEC11B414502D9032036
:10092000BDE8F883206A8007F4D5206A696820F45E
:100930004070084320621EB1E06920F08050E06101
:100940002878800705D56068A96820F440400843EE
:1009500060602878C00605D56068E96820F48000EA
:10096000084360600020DBE7001002400070004098
:10097000400442422DE9F0470F46050061D0434E46
:10098000306800F00700B84209D2306820F0070054
:1009900038433060306800F00700B84251D1286811
:1009A0003B4C810712D5400703D5606840F4E060F6
:1009B00060602878000703D5606840F4605060608C
:1009C0006068A96820F0F000084360602878C007DC
:1009D00028D06868012810D02168022810D0890723
:1009E00000292EDA616821F0030101436160FFF7FD
:1009F00039FE804641F288390DE021688903EFE72E
:100A00008901EDE7FFF72EFEA0EB0801494502D969
:100A10000320BDE8F0876068696800F00C00B0EB67
:100A2000810FEFD1306800F00700B8420BD9306871
:100A300020F0070038433060306800F00700B8420B
:100A400001D00120E5E72878400705D56068E9680E
:100A500020F4E060084360602878000706D56068ED
:100A6000296920F4605040EAC100606000F038F865
:100A70006168084AC1F30311515CC8400649086027
:100A800006480068FFF70EFE0020C2E70020024083
:100A900000100240361600080C0000200400002060
:100AA0000448054900684968044AC1F30221515CC1
:100AB000C84070470C000020001002404616000895
:100AC0000448054900684968044AC1F3C221515CE1
:100AD000C84070470C000020001002404616000875
:100AE00013A185B00FC98DE80F0015A0154A006845
:100AF0000490516801F00C00042804D0082804D0A8
:100B0000114805B070471148FBE7C1F38343C9039F
:100B10001DF8030009D5516804AAC1F34041515C96
:100B20000A4A5043B0FBF1F0EBE709494843E8E7D4
:100B300002030405060708090A0B0C0D0E0F10101E
:100B4000010200000010024000127A00001BB700F2
:100B500000093D002DE9F84F040070D02078C04D09
:100B6000C00749D06868C0F38100012807D06868D1
:100B7000C0F38100022809D16868C00306D528683F
:100B8000800339D560680028E7D035E06068B0F5AB
:100B9000803F0BD010B1B0F5A02F11D0286820F401
:100BA00080302860286820F4802002E0286840F423
:100BB00080302860606890B1FFF754FD06460AE077
:100BC000286840F480202860F0E700BFFFF74AFD66
:100BD000801B642873D828688003F7D50CE0FFF7E2
:100BE00041FD064605E000BFFFF73CFD801B642881
:100BF000F0D828688003F7D420789A4E80074FF009
:100C000001094FF0000839D5686810F00C0F07D0C3
:100C10006868C0F38100022809D16868C00306D45F
:100C20002868800714D52069012808D110E02069C0
:100C3000B0B1C6F80090FFF715FD074605E00AE1E0
:100C4000FFF710FDC01B0228C4D828688007F7D51D
:100C50002868616920F0F80040EAC10028600DE0D2
:100C6000C6F80080FFF7FEFC074604E0FFF7FAFC39
:100C7000C01B022823D828688007F7D420780007F3
:100C80002CD57948A169D9B1C0F80090FFF7EAFCEA
:100C9000074604E0FFF7E6FCC01B02280FD8686A8D
:100CA0008007F7D571484FF4FA510068B0FBF1F0B6
:100CB000009000BF0098411E0091FAD20EE080E043
:100CC000C0F80080FFF7CEFC074604E0FFF7CAFC3F
:100CD000C01B022875D8686A8007F7D420784007BF
:100CE00060D5E8690027C00008D4E86940F080506A
:100CF000E861E869012700F0805000905C480168D5
:100D0000C90513D40168834641F480710160FFF77F
:100D1000A9FC824606E000BFFFF7A4FCA0EB0A0096
:100D200064284ED8DBF80000C005F5D5E06801283E
:100D30000AD008B1052813D0286A20F001002862E3
:100D4000286A20F0040002E0286A40F001002862CE
:100D5000E06841F2883B98B1FFF784FC82460BE0E3
:100D6000286A40F004002862EEE700BFFFF77AFC33
:100D7000A0EB0A0159455AD8286A8007F6D50CE03D
:100D8000FFF770FC824605E0FFF76CFCA0EB0A0160
:100D900059454CD8286A8007F6D41FB1E86920F07D
:100DA0008050E861E06988B36968C1F38101022974
:100DB00044D00228C6F8608004D0FFF753FC0446F4
:100DC00038E034E0FFF74EFC074604E0FFF74AFC4A
:100DD000C01B02282BD828688001F7D4206AB0F500
:100DE000803F05D16868A16820F40030084368603E
:100DF000D4E908010843696821F474110843686064
:100E0000C6F86090FFF72EFC044606E025E000BF20
:100E1000FFF728FC001B022809D828688001F7D5B5
:100E20001BE000BFFFF71EFC001B022802D90320B5
:100E3000BDE8F88F28688001F4D40EE00128F7D0CF
:100E40006868226A00F48031914204D1616A00F43A
:100E50007010884201D00120EAE70020E8E7000096
:100E60000010024000004242800442420C00002078
:100E70000070004010B5401EB0F1807F01D301200A
:100E800010BD4FF0E02460610F21601700F0A3FB5C
:100E90000020A06107202061002010BD70B590F8EF
:100EA0003C20012A26D0012480F83C40022280F810
:100EB0003D2003685A689D6822F070060A68324334
:100EC0005A600D4B02689A4208D0B2F1804F05D0AB
:100ED0000A4B9A4202D00A4B9A4204D1496825F043
:100EE00080031943916080F83D40002180F83C1058
:100EF000084670BD022070BD002C01400004004077
:100F00000008004010B5040003D094F83D0010B173
:100F100007E0012010BD002084F83C00204600F0CE
:100F20001FF8022084F83D00211D206800F074FAAB
:100F3000012084F8460084F83E0084F83F0084F8DD
:100F4000400084F8410084F8420084F8430084F8AB
:100F5000440084F8450084F83D00002010BD0000E6
:100F600008B50068B0F1804F08D10548C16941F06B
:100F70000101C161C06900F00100009008BD0000DE
:100F80000010024070B5044690F83C00012817D0CC
:100F9000012584F83C50022084F83D0020688268D6
:100FA00022F0770222F47F4282600868502830D015
:100FB0000DDC20284DD005DC98B310283BD148E04B
:100FC000022070BD302844D0402834D139E0602858
:100FD00028D0702806D0B0F5805F2CD0B0F5005F27
:100FE00029D10AE0CB68D1E90121206800F04AFA52
:100FF0002068816841F0770109E0CB68D1E90121DF
:10100000206800F03FFA2068816841F480418160E7
:1010100011E0CA684968206800F046FA502120684B
:1010200007E016E0CA684968206800F04EFA6021BF
:10103000206800F031FA84F83D50002084F83C002C
:1010400070BDCA684968206800F02EFA4021206807
:10105000EFE7226801461046EBE770B5040004D0C4
:1010600094F83900002510B106E0012070BD84F825
:101070003850204600F022F8242084F839002068F7
:10108000C16821F40051C160204600F031FA2068A7
:10109000016921F4904101612068416921F02A0130
:1010A00041612068C16841F40051C160E5632020BE
:1010B00084F8390084F83A00002070BD30B585B05E
:1010C0000024009401940294039400681449884217
:1010D00024D11448816941F480418161816901F41E
:1010E00080410491816941F00401816180690E4D64
:1010F00000F0040004904FF4007000900220019072
:101100000320039069462846FFF7B6F92815CDE974
:101110000004694628460294FFF7AEF905B030BDD9
:1011200000380140001002400008014010B50400E2
:101130000FD000F011F8E068216840F080000860EE
:10114000616820690843A16808432168486000205D
:1011500010BD012010BD000008B500680649884296
:1011600008D10648C16941F40061C161C06900F459
:101170000060009008BD0000002C004000100240FC
:10118000FEE700003EB5002410480094019402944C
:101190000D498460016004730475012505614FF4F5
:1011A00060214460C161FFF79BF808B1FFF718F8B0
:1011B000CDE90045694605480294FFF713F8002879
:1011C00001D0FFF70DF83EBD0024014010000020C3
:1011D0002DE9F04385B00026294800960196029635
:1011E0000396816941F010018161816901F010016C
:1011F0000491816941F020018161816901F0200140
:101200000491816941F004018161816901F0040167
:101210000491816941F0080181618069DFF864808F
:1012200000F008004FF4005404900022214640468C
:10123000FFF712FADFF850904FF2E03700223946FC
:101240004846FFF709FA009401240225CDE901453B
:10125000694640460395FFF70FF9A002CDE9000665
:10126000694602944846FFF707F9CDE900746946DC
:101270004846CDE90245FFF7FFF805B0BDE8F08329
:101280000010024000100140000C014010B586B073
:1012900000241648009401940294039404944FF09F
:1012A00080410594C0E900144FF6FF71C0E9024186
:1012B00004618461FFF726FE08B1FEF791FF4FF449
:1012C0008050009069460948FFF75CFE08B1FEF7C0
:1012D00087FF049404A905480594FFF7DFFD002863
:1012E00001D0FEF77DFF06B010BD000040000020D9
:1012F0000C4810B50A4901604FF4E131416000210A
:1013000081600C22C160C0E904128161C161FFF7F4
:10131000A4FE002803D0BDE81040FEF761BF10BD59
:1013200000380140880000200B4810B509490160D1
:10133000082141600221816000218161C161016257
:10134000FFF720FA002803D0BDE81040FEF748BFA1
:1013500010BD0000005C0040C80000200A4810B525
:101360000849016000214022C0E90112C0E90321BF
:10137000FFF7DCFE002803D0BDE81040FEF730BFC9
:1013800010BD0000002C0040B4030020FEE7FEE783
:1013900070477047FFF76CB930B593B028216846A5
:1013A000FEF7D9FE14210AA8FEF7D5FE00240F94FB
:1013B0001094119401204FF4A02112948DE8130091
:1013C000049002250004CDE9075000010990684609
:1013D000FFF7C0FB08B172B6FEE70F20CDE90A05A2
:1013E0004FF48060CDE90C400E9002210AA8FFF76F
:1013F000C1FA08B172B6FEE712200F904FF4804098
:10140000CDE911040FA8FFF73FFA002801D072B60A
:10141000FEE713B030BD7047F0B50268164B174CAD
:10142000174D4FF08047984205D0B84203D0A042F4
:1014300001D0A84203D122F070064A683243984294
:1014400005D0B84203D0A04201D0A84203D122F473
:101450004074CA6822434C6922F080022243026031
:101460008A68C2620A688262984201D1096901638E
:1014700001214161F0BD0000002C0140000400404A
:101480000008004010B5846842EA032224F47F4437
:101490000A432243826010BD826822F070020A4330
:1014A00042F007018160704710B5036A046A24F0B6
:1014B00001040462846924F0F00444EA021423F075
:1014C0000A020A438461026210BD10B5036A23F068
:1014D000100303628369046A23F4704343EA02320F
:1014E00024F0A00343EA01118261016210BD0000F3
:1014F00070B5044600680169E26821F44051114367
:1015000001612169A0680843616908432168CA68CC
:1015100041F20C639A430243CA6020684169A269A0
:1015200021F44071114341611E492068884202D173
:10153000FFF7C6FA01E0FFF7B3FA00EBC00101EBD9
:101540000012606864218000B2FBF0F3B3FBF1F39A
:101550006FF018067343B2FBF0F5B2FBF0F605EB43
:101560008305322303EB0515B5FBF1F5B6FBF1F668
:1015700005F0F00505EB0615B2FBF0F6B2FBF0F056
:10158000B0FBF1F06FF01802504306EB800003EB64
:101590000010B0FBF1F0216800F00F0028448860D3
:1015A00070BD0000003801400020704700207047E7
:1015B000012120F8401F002101808180018208461E
:1015C000704730F8401F21F43F41018000207047F0
:1015D00000207047FEE70907090E002804DB00F130
:1015E000E02080F80014704700F00F0000F1E020C8
:1015F00080F8141D704702E008C8121F08C1002AB5
:10160000FAD170477047002001E001C1121F002A83
:10161000FBD17047FFF734F8FFF7BEFEFFF7D8FDA8
:10162000FFF7B0FDFFF764FEFFF730FEFFF77CFE2B
:10163000FFF794FEFEE7000000000000000001023A
:10164000030406070809000000000102030400006B
:10165000701600080000002010000000F6150008B9
:101660008016000810000020B807000006160008C9
:101670000100000010000000000000000024F40041
:04000005080000ED02
:00000001FF
