:020000040800F2
:1000000010110020010100080F2400086B210008D6
:100010000D240008590900082D2F000800000000D9
:10002000000000000000000000000000CB240008D9
:100030009309000800000000C9240008892C00086A
:100040001B0100081B0100081B0100081B01000820
:100050001B0100081B0100081B0100081B01000810
:100060001B0100081B0100081B0100085D090008B6
:100070001B0100081B0100081B0100081B010008F0
:100080001B0100081B0100081D0800081B010008D7
:100090001B0100081B0100081B0100081B010008D0
:1000A0001B0100081B0100081B0100081B010008C0
:1000B0001B0100081B0100081B0100081B010008B0
:1000C0001B0100081B0100081B0100081B010008A0
:1000D0001B0100081B0100081B0100081B01000890
:1000E0001B0100081B0100081B010008DFF80CD0F1
:1000F00000F0D8FA004800475D39000810110020D0
:100100000648804706480047FEE7FEE7FEE7FEE7B1
:10011000FEE7FEE7FEE7FEE7FEE7FEE70B2D000841
:10012000ED000008202A04DB203A21FA02F0002129
:10013000704721FA02F3D040C2F1200291400843F7
:100140001946704740EA01039B0703D009E008C93C
:10015000121F08C0042AFAD203E011F8013B00F88C
:10016000013B521EF9D27047D2B201E000F8012BD8
:10017000491EFBD270470022F6E710B513460A4627
:1001800004461946FFF7F0FF204610BD80EA010241
:1001900010B502F00043400022D04A001FD0010EEB
:1001A00001EB1261C0F35600C2F3560240F40000A6
:1001B00042F40002A0FB022000047F39140400D0A6
:1001C000401C50EA124001D44000491EC2B20C0645
:1001D00004EBD010401C4008802A02D003E000202D
:1001E00010BD20F00100002900DA0020184310BDE6
:1001F000420005D0C0F3C7525242914201DC0020B8
:10020000704700EBC150704796230022114600F062
:1002100063B800F0004230F000400AD0C10D01F593
:100220006071C0F3160042EA0151C2084007114351
:10023000704700200146704730B50B46014600204C
:100240002022012409E021FA02F59D4205D303FA98
:1002500002F5491B04FA02F52844151EA2F1010219
:10026000F1DC30BD2DE9F05F0546002092469B464B
:1002700088460646814640241BE0284641464746BC
:100280002246FFF74FFF53465A46C01A914110D3FA
:1002900011461846224600F017FA2D1A67EB01089E
:1002A0004F4622460120002100F00EFA17EB00090C
:1002B0004E41201EA4F10104DFDC484631462A46A7
:1002C0004346BDE8F09F0029A8BF7047401C490085
:1002D00008BF20F00100704710B4B0FA80FC00FAAB
:1002E0000CF050EA010404BF10BC704749B1CCF1D6
:1002F000200421FA04F411FA0CF118BF0121214362
:100300000843A3EB0C01CB1D4FEA00614FEA10201C
:1003100042BF002010BC704700EBC35010440029BE
:10032000A4BF10BC7047401C490008BF20F001006A
:1003300010BC70472DE9FE4F804681EA0300C00FD4
:100340000C46009021F0004123F00045B8EB02007C
:10035000A94105D24046214690461C460B4602461E
:1003600023F00040104347D0270DC7F30A00C3F322
:100370000A510290401A019040286BDAC3F313002F
:1003800040F4801B0098924620B10023D2EB030A70
:1003900063EB0B0B01985946C0F14002504600F048
:1003A00093F906460D4650465946019A00F09BF9CE
:1003B00010EB08006141002487EA115284EAE773D8
:1003C0001A4340D0009A62B3019A012A4FEA0752B9
:1003D00015DC001B61EB02014FF0004202EA0752FC
:1003E000CDE90042001C41F5801132462B4600F059
:1003F0009BF903B0BDE8F08F40462146F9E7001BAA
:1004000061EB0201001C41F5801300185B412018CC
:10041000A2F5001747EB030140EAD570B6196D410C
:1004200011E06D084FEA360645EAC0754FEA0752FB
:10043000001B61EB0201001C41F5801149084FEAE5
:1004400030000019514132462B4603B0BDE8F04F51
:1004500000F05BB90098012240000023D0EB0202BB
:1004600063EBE073009821464FEAE074B8EB0000BC
:1004700061EB0401E9E783F000435BE781F00041B1
:1004800058E72DE9FE4F81EA030404F0004421F00F
:10049000004100944FF0000B23F0004350EA0104A8
:1004A0005ED052EA03045BD0C3F30A54C1F30A5589
:1004B0002C44A4F2F3340194A0FB0254C1F31301C1
:1004C00041F48011C3F3130343F4801301FB02448E
:1004D00000FB034E840A970A44EA815447EA835793
:1004E000A4FB076802958D0A05FB07854FEA932C4C
:1004F00004FB0C542705029D4FEA065847EA1637BD
:10050000B5EB08056EEB070C870E920E47EA8117D4
:1005100042EA8312A7FB0201B6EB0B0164EB000475
:100520002B0D43EA0C335E1844EB1C50DA4651465F
:10053000E7FB0201C5F313044FEA0B3343EA1453FC
:100540004FEA0432019C43EA0603A4F10C0402942E
:10055000009CCDE900B400F0E7F803B0BDE8F08FEF
:1005600000200146F9E72DE9F04D81EA030404F08B
:10057000004B21F0004514464FF0000A23F00041E3
:1005800050EA050220D054EA01021DD0C5F30A57F3
:100590000246C5F31303C1F31300C1F30A5640F436
:1005A000801543F48013A7EB0608101BD64608F20B
:1005B000FD3873EB050002D308F1010801E0921841
:1005C0005B41B8F1000F03DA00200146BDE8F08D71
:1005D00000204FF48011064684460EE0171B73EB93
:1005E000050705D3121B63EB050306434CEA010C18
:1005F00049084FEA300092185B4150EA0107EDD1FB
:1006000052EA030012D082EA040083EA050108439B
:1006100005D0101BAB4106D20122002306E00022C8
:100620004FF0004302E06FF0010253101AEB060096
:100630004CEB085110EB0A0041EB0B01BDE8F04D0B
:1006400000F063B8C1F30A52C1F3130140F2FF3363
:1006500041F480119A4202DA00200146704740F2CC
:1006600033439A42A2F2334202DC5242FFF75ABDB0
:1006700000F02AB830B5041E71F1000404DB4FF01D
:100680000044404264EB0101141E73F1000405DBD9
:100690001C464FF00043524263EB0403994208BFEB
:1006A000904230BD064C074D06E0E06840F0010383
:1006B00094E8070098471034AC42F6D3FFF71AFDD0
:1006C0006840000888400008202A04DB203A00FA2D
:1006D00002F1002070479140C2F1200320FA03F399
:1006E000194390407047202A06DBCB17203A41FA85
:1006F00002F043EAE07306E041FA02F3D040C2F1AF
:100700002002914008431946704710B5141E73F13A
:10071000000408DA401C41F1000192185B411A43C1
:1007200001D120F0010010BD2DE9F04D92469B460D
:1007300011B1B1FA81F202E0B0FA80F220329046B3
:10074000FFF7C2FF04460F4640EA0A0041EA0B01E8
:1007500053465A46084313D0114653EA010019D0B4
:10076000C8F140025046FFF7DDFC05460E465046F4
:1007700059464246FFF7A8FF084305D0012004E090
:1007800020463946BDE8F08D0020054346EAE07674
:100790002C4337430A986305E40AA0EB08000022C3
:1007A000FD0A44EA47540A3002D500200146E9E731
:1007B000010510196941DDE9084500196941BDE8E5
:1007C000F04DA2E770B58C1810F8015B15F0070327
:1007D00001D110F8013B2A1106D110F8012B03E0DA
:1007E00010F8016B01F8016B5B1EF9D12B0705D4E2
:1007F0000023521E0DD401F8013BFAE710F8013B2B
:10080000CB1A921C03E013F8015B01F8015B521E46
:10081000F9D5A142D8D3002070BD0000014800F0F6
:10082000DAB900002809002070B504460068816824
:10083000C943C9071CD1816821F00101816000F022
:1008400065FE05460FE000BF00F060FE401B022879
:1008500009D9A06A40F01000A062E06A40F00100EF
:10086000E062012070BD20688068C043C007EBD003
:10087000002070BD10B50146406A826A12F0500F28
:1008800005D0006A026BBDE8104008461047816A37
:1008900041F40071816201688968C1F3424107290E
:1008A0000CD1017B51B9816A21F480718162816A26
:1008B000C90403D4816A41F00101816200F088F922
:1008C00010BD10B5406A816A41F040018162C16A81
:1008D00041F00401C16200F07DF910BD10B5406A1D
:1008E00000F077F910BD0000F8B500260446009628
:1008F00000688168C943C90728D0816841F00101B7
:100900008160134813490068B0FBF1F000E0401E1D
:1009100000900028FBD100F0F9FD054611E000BF72
:1009200000F0F4FD401B02280BD9A06A40F0100033
:10093000A062E06A40F00100E06284F824600120D7
:10094000F8BD20688068C043C007E9D10020F8BD29
:10095000C008002040420F00FEE70000014800F000
:10096000BDBB00005809002030B590F8405001246C
:10097000AC40C56B6C60046863604368102B03680F
:1009800003D099600068C26030BD9A600068C160A1
:1009900030BD704730B500230FE000220021CA248B
:1009A000641EE4B2FCD2491CC9B20F29F7D3521C11
:1009B000D2B2832AF2D35B1CDBB28342EDD330BDCB
:1009C00072B6FEE72DE9F0410E4607467F21002072
:1009D00001F07CFD7F21002001F0E1FE5C2002F0AF
:1009E000A7FA00250024384602F0E0FA304602F06B
:1009F000DDFA641CE4B2802CF5D36D1CEDB2802DC1
:100A0000F0D3BDE8F0810000F8B50025044600955C
:100A100090F82400012808D0012084F82400204602
:100A2000FFF702FF060002D04BE00220F8BDA06AEB
:100A300020F4885040F00200A062022000F086FE00
:100A400022490968B1FBF0F0400000E0401E009030
:100A50000028FBD12046FFF747FF2068816841F05E
:100A60000801816000F052FD074604E000F04EFDF1
:100A7000C01B0A2811D8206880680007F6D42068B7
:100A8000816841F00401816000F040FD07460EE0FE
:100A900000F03CFDC01B0A2809D9A06A20F0020022
:100AA00040F01000A06284F824500120F8BD2068B6
:100AB00080684007ECD4A06A20F0020040F00100FA
:100AC000A06284F824503046F8BD0000C008002021
:100AD00070470000F8B50024009490F824202546C3
:100AE000012A12D0012280F824204A681F23072AF5
:100AF0000DD20668776B521E02EB820293409F4331
:100B00000B6893401F43776319E00220F8BD066825
:100B10000D2A0AD2376BD21F02EB820293409F4309
:100B20000B6893401F43376309E0F76A0D3A02EB05
:100B3000820293409F430B6893401F43F7620A6809
:100B4000072306680A2A0AD3F7680A3A02EB420228
:100B500093409F438B6893401F43F76008E03769D9
:100B600002EB420293409F438B6893401F433761DF
:100B70000A68102A01D0112A20D1124B02689A4229
:100B800017D193681B0219D4936843F40003936050
:100B90000968102912D10C490C4A0968B1FBF2F11D
:100BA00001EB8101490000E0491E00910029FBD1C1
:100BB00004E0816A41F020018162012480F8245020
:100BC0002046F8BD00240140C008002040420F002C
:100BD00070477047704710B5044600684168890641
:100BE00026D50168890723D5A16AC90603D4A16A5D
:100BF00041F40071A1628168C1F34241072910D11B
:100C0000217B71B9416821F020014160A06A20F484
:100C10008070A062A06AC00403D4A06A40F0010002
:100C2000A0622046FFF7D4FF21686FF01200086031
:100C30002068416809062ED5016849072BD5A16AAD
:100C4000C90603D4A16A41F40051A1628168C1F3CD
:100C50000231072909D04168490515D48168C1F3DB
:100C60004241072910D1217B71B9416821F08001EF
:100C70004160A06A20F48050A062A06AC00503D43D
:100C8000A06A40F00100A0622046FFF721FF216822
:100C90006FF00C0008602068416849060DD50068B7
:100CA000C0070AD0A06A40F48030A062204600F05D
:100CB00093F821686FF00100086010BD2DE9F04144
:100CC0004FF0000704003D467ED0A06A002628B9F8
:100CD000E66284F82460204600F080F82046FFF7A2
:100CE000A3FDA16AC90600D420B1A06A40F010009B
:100CF000A06269E0A16A21F4885141F00201A16279
:100D00006268E169237B0A4347EA43010A43A16819
:100D10004FF48077B94209D0012907D05FF0000174
:100D200094F814C0BCF1010F02D00AE03946F7E78D
:100D3000F3B1A36A43F02003A362E36A43F0010323
:100D4000E3622368D3F804C02CF4694C4CEA010C2C
:100D5000C3F804C021688B68DFF870C003EA0C0395
:100D600013438B60A168B9420BD0012909D00CE074
:100D7000DFF85CC0A3690CEB43330B4343F4006121
:100D8000DFE7218A0D05A5F580152168CB6A23F4DC
:100D900070032B43CB62216889680E4B1940914246
:100DA00008D1E662A16A21F0020141F00101A162CD
:100DB000BDE8F081A06A20F0020040F01000A062BF
:100DC000E06A40F00100E0620120F1E7FDF7E1FF99
:100DD00000E0FFFFFE0E1FFF7047000070B586B0F9
:100DE000002605460096019602960396006826495D
:100DF000884246D12549886940F400708861886935
:100E000000F400700490886940F0040088618869EB
:100E100000F004000490886940F008008861886947
:100E2000032400F008000490FF20CDE90004694687
:100E3000174800F075FA0120CDE90004694615480D
:100E400000F06EFA154C1448C4E900068020C4E98D
:100E5000026080002061800060612020A0610002AB
:100E6000E061204600F0E4F908B1FFF7A9FD2C622B
:100E7000002211461220656200F0B4FB122000F03F
:100E8000A3FB06B070BD000000240140001002402A
:100E900000080140000C01400800024058090020F1
:100EA0002DE9F84300260D460446009600F02EFB7F
:100EB000804620688168C90508D5A06A40F02000F6
:100EC000A06284F824600120BDE8F8834168C90568
:100ED00003D4C06A10F4700F26D0022000F036FC54
:100EE00038490968B1FBF0F72068036936490B42BD
:100EF0004FEA61014FEAA1121BD1C3684FEA611C9E
:100F000013EA0C0F15D103690B4221D1C0681042BE
:100F10001ED114201FE0681C06D045B300F0F6FA7D
:100F2000A0EB0800A84222D8206800688007F2D50C
:100F30002AE003690B4202D1C168114206D002695E
:100F400022490A4206D1C068084203D1542002E077
:100F5000292000E0FC204743009813E0681C0ED0D5
:100F60002DB100F0D3FAA0EB0800A84207D9A06A7F
:100F700040F00400A06284F824600320A4E70098F5
:100F8000401C0090B842E9D321686FF0120008605D
:100F9000A06A40F40070A06220688068C0F34240FC
:100FA00007280CD1207B50B9A06A20F48070A06281
:100FB000A06AC00403D4A06A40F00100A06200202F
:100FC00082E70000C00800202449922449922400AE
:100FD0002DE9F047894604463B4900683B4F0E1D0A
:100FE0009046884201D0B84207D1306810F4702F83
:100FF00003D001252846BDE8F08794F82400012895
:101000000CD0012084F824002046FFF76DFC050079
:101010004FF0000004D084F82400EBE70220EAE758
:10102000A16A40F60162914341F48071A162216896
:10103000B94218D1326812F4702F14D0A16A41F469
:101040008011A1623168490505D5A16A21F40051DA
:1010500041F48051A162A16AC9040AD5E16A21F074
:101060000601E16206E0A26A22F48012A2624968E7
:10107000E9E7E06284F82400216A15488862216A61
:101080001448C862216A1448086321686FF002009E
:1010900008602068816841F480718160216843465E
:1010A0004A464C31206A00F0F1F820688168C1F3AB
:1010B00042410729816803D041F48011816099E79A
:1010C00041F4A001FAE7000000240140002801409B
:1010D00075080008DD080008C30800082DE9F05F66
:1010E000C16B0C6801680B68D0F840C0042202FA9A
:1010F0000CF2494DDFF824A1494E4A4FDFF828B1E0
:10110000DFF828E122422CD05A072AD50A68920635
:1011100003D40A6822F004020A600168A94201D1DE
:10112000042219E0514501D1402215E0B14202D11B
:101130004FF4806210E0B94202D14FF480420BE0DC
:10114000594502D14FF4802206E0714502D14FF497
:10115000800201E04FF080622F4908394A60C16A7D
:101160003BE04FF0020808FA0CF818EA040F4FF0C1
:1011700000094FF0010235D05FEA837832D50B6861
:101180009B0605D40B6823F00A030B6080F821202E
:101190000168A94201D1022219E0514501D1202262
:1011A00015E0B14202D14FF4007210E0B94202D111
:1011B0004FF400520BE0594502D14FF4003206E0E3
:1011C000714502D14FF4001201E04FF00072124954
:1011D00008394A6080F82090816A00291AD0BDE859
:1011E000F05F0847082505FA0CF5254212D01B07C9
:1011F00010D50B6823F00E030B6090F84010C36B02
:1012000002FA01F15960826380F8212080F8209071
:10121000016BE2E7BDE8F09F080002401C000240BD
:101220003000024044000240580002406C0002407E
:1012300030B528B308C8134914221944B1FBF2F1A0
:101240008900C16310498163022141771A6843F61E
:10125000F0718A43D0E900142143D0E902452C43C0
:101260002143046921434469214384692143114393
:10127000196000214163012242770177084630BDA1
:10128000012030BDF8FFFDBF0000024070B50446EC
:1012900090F82000002501280CD0012084F82000BF
:1012A00094F821600020012E06D084F82000022549
:1012B000284670BD022070BD022684F82160A0631C
:1012C0002068066826F0010606602046FFF74CFB02
:1012D000E06A00282068016802D041F00E0106E0B3
:1012E00021F0040101602068016841F00A010160F9
:1012F0002068016841F001010160D9E770B504463A
:1013000000F004F90546601C02D00448007804444B
:1013100000F0FCF8401BA042FAD370BDB4080020D6
:101320002DE9F84FDFF8B891002409F1040A0AF119
:10133000040B23460F270BF1040EC9E00125A5403D
:101340002A40AA427DD1674ED1F804C0ACEB060812
:10135000B44532D014DCBCF1030F3AD009DCBCF147
:10136000000F2AD0BCF1010F1CD0BCF1020F31D10B
:101370001DE0BCF1110F17D0BCF1120F2AD119E0FA
:10138000B8F5881F19D006DCB8F5803F15D0B8F540
:10139000801F1FD111E0B8F5001F0ED0B8F5041F53
:1013A00018D10AE0CB6815E0CB681B1D12E0CB68B2
:1013B00008330FE0CB680C330CE08B682BB1012BAA
:1013C0004FF0080303D0456104E0042302E0056107
:1013D00000E00023FF2A01D8064601E000F10406E0
:1013E0004FEA840501D9A5F12005D6F8008007FA57
:1013F00005FC28EA0C0803FA05F548EA0508C6F8D2
:1014000000804D68ED0062D5374DAE6946F00106AB
:10141000AE61AD6924F0030605F001050095334D7A
:1014200006EB050CDCF80850A607360F07FA06F89D
:1014300025EA0805DFF8B880404503D14FF00008E1
:1014400017E044E0DFF8AC80404502D14FF00108DE
:101450000FE0DFF8A480404502D14FF0020808E019
:10146000DFF89880404502D14FF0030801E04FF0CB
:10147000040808FA06F848EA0508CCF808804D6820
:10148000D9F80060ED034D4601D5164300E09643C0
:101490002E604D68DAF80060AD03554601D516435D
:1014A00000E096432E604D68DBF80060ED025D467B
:1014B00001D5164300E096432E604D68DEF80060CB
:1014C000AD02754601D5164300E096432E60641CBC
:1014D0000D682A46E5407FF431AFBDE8F88F000083
:1014E0000004014000001110001002400000014003
:1014F00000080140000C01400010014000140140B0
:101500000AB1016170470904FBE7000001488068E7
:1015100070470000B4080020024881680278114436
:1015200081607047B4080020074810B5016841F099
:1015300010010160032000F075F8002000F006F8AB
:1015400000F024F8002010BD0020024070B50D4DC1
:1015500004464FF47A712878B1FBF0F00A49096823
:10156000B1FBF0F000F04CFC48B9102C07D200227F
:101570002146501E00F036F800206C6070BD01203E
:1015800070BD0000B4080020C00800200C4808B559
:10159000816941F001018161816901F001010091DE
:1015A000C16941F08051C161C06900F08050009074
:1015B0000448416821F0E06141F00071416008BDDC
:1015C0000010024000000140002809DB00F01F026B
:1015D000012191404009800000F1E020C0F8001195
:1015E00070470000F0B40E4B1B680C46C3F3022397
:1015F000C3F10705042D00D90425191D072901D2BF
:10160000002300E0DB1E012606FA05F1491E2140F9
:1016100099409E40761E16403143F0BC01F018BD43
:101620000CED00E0064900F0070208684FF6FF03E2
:10163000184040EA0220034A104308607047000047
:101640000CED00E00000FA052DE9F04186B0040041
:1016500004D094F8A902002520B108E0012006B0CA
:10166000BDE8F08184F8A852204600F05BF8032022
:1016700084F8A902206801F050FC04F11001142242
:1016800088466846FEF75EFD94E80F0001F038FCDE
:101690000226D0BB0021206801F046FC0020012773
:1016A0000FE000BF00EB800104EBC10181F829705D
:1016B00001F8280FC881CD700D614D61401CC0B28A
:1016C0008D6161688142EDD8002011E000EB80015E
:1016D00004EBC10181F8695181F8680181F86B510F
:1016E000C1F87851C1F87C51401CC0B2C1F880519A
:1016F00061688142EAD8142241466846FEF722FD1D
:1017000094E80F0001F000FC10B184F8A962A5E78D
:1017100084F8245084F8A972206801F0F3FB0020BB
:101720009DE7000008B500680649884208D10648D0
:10173000C16941F40001C161C06900F4000000907A
:1017400008BD0000005C00400010024010B528A455
:1017500001461DCC86B08DE81D0029A0294C0068EB
:1017600004900020012923D0022939D010291DD14D
:1017700061682268D20119D5C1F38342C9031DF8FB
:10178000020009D5616804AAC1F34041515C1E4AB8
:10179000B2FBF1F1484301E01C494843616849024A
:1017A00004D440005FF00301B0FBF1F006B010BDBF
:1017B000226AC2F30121012903D1920701D5C8038E
:1017C000F4E7022905D1626A920702D549F6404042
:1017D000ECE70329EAD121688903E7D50C48E5E75E
:1017E00000F034F96168C1F38131491C4900DBE73D
:1017F00002030405060708090A0B0C0D0E0F101052
:101800000102000000100240001BB70000093D006B
:10181000366E01002DE9F84305460078354CC007C7
:1018200054D0E0690026C00008D4E06940F0805040
:10183000E061E069012600F0805000902E480168C8
:10184000C90512D40168804641F480710160FFF738
:101850005DFE074605E000BFFFF758FEC01B642889
:1018600023D8D8F80000C005F6D5206A10F44070DF
:1018700021D0A98801F4407181421CD0206A1F49FF
:10188000012220F440700A6000220A602062C00732
:1018900011D0FFF73BFE074641F2883808E000BF51
:1018A000FFF734FEC11B414502D90320BDE8F88390
:1018B000206A8007F4D5206A696820F440700843E4
:1018C00020621EB1E06920F08050E0612878800736
:1018D00005D56068A96820F4404008436060287816
:1018E000C00605D56068E96820F4800008436060A0
:1018F0000020DBE70010024000700040400442423C
:101900002DE9F0470F46050061D0434E306800F0E6
:101910000700B84209D2306820F007003843306031
:10192000306800F00700B84251D128683B4C81076D
:1019300012D5400703D5606840F4E0606060287805
:10194000000703D5606840F4605060606068A96873
:1019500020F0F000084360602878C00728D068684D
:10196000012810D02168022810D0890700292EDA1A
:10197000616821F0030101436160FFF7C7FD804604
:1019800041F288390DE021688903EFE78901EDE72D
:10199000FFF7BCFDA0EB0801494502D90320BDE8D3
:1019A000F0876068696800F00C00B0EB810FEFD140
:1019B000306800F00700B8420BD9306820F007000B
:1019C00038433060306800F00700B84201D0012091
:1019D000E5E72878400705D56068E96820F4E0600D
:1019E000084360602878000706D56068296920F4FC
:1019F000605040EAC100606000F038F86168084A51
:101A0000C1F30311515CC8400649086006480068EC
:101A1000FFF79CFD0020C2E70020024000100240BA
:101A200050400008C0080020B808002004480549BC
:101A300000684968044AC1F30221515CC8407047FC
:101A4000C00800200010024060400008044805491A
:101A500000684968044AC1F3C221515CC84070471C
:101A6000C0080020001002406040000813A185B0AB
:101A70000FC98DE80F0015A0154A00680490516841
:101A800001F00C00042804D0082804D0114805B047
:101A900070471148FBE7C1F38343C9031DF80300F6
:101AA00009D5516804AAC1F34041515C0A4A504328
:101AB000B0FBF1F0EBE709494843E8E7020304050E
:101AC000060708090A0B0C0D0E0F1010010200008A
:101AD0000010024000127A00001BB70000093D0010
:101AE0002DE9F84F040070D02078C04DC00749D0D0
:101AF0006868C0F38100012807D06868C0F38100DE
:101B0000022809D16868C00306D52868800339D542
:101B100060680028E7D035E06068B0F5803F0BD002
:101B200010B1B0F5A02F11D0286820F480302860C3
:101B3000286820F4802002E0286840F48030286083
:101B4000606890B1FFF7E2FC06460AE0286840F4BE
:101B500080202860F0E700BFFFF7D8FC801B6428D6
:101B600073D828688003F7D50CE0FFF7CFFC064652
:101B700005E000BFFFF7CAFC801B6428F0D8286886
:101B80008003F7D420789A4E80074FF001094FF078
:101B9000000839D5686810F00C0F07D06868C0F3EA
:101BA0008100022809D16868C00306D4286880072C
:101BB00014D52069012808D110E02069B0B1C6F819
:101BC0000090FFF7A3FC074605E00AE1FFF79EFC43
:101BD000C01B0228C4D828688007F7D52868616927
:101BE00020F0F80040EAC10028600DE0C6F800804F
:101BF000FFF78CFC074604E0FFF788FCC01B0228B7
:101C000023D828688007F7D4207800072CD5794896
:101C1000A169D9B1C0F80090FFF778FC074604E04D
:101C2000FFF774FCC01B02280FD8686A8007F7D53D
:101C300071484FF4FA510068B0FBF1F0009000BF1A
:101C40000098411E0091FAD20EE080E0C0F80080BA
:101C5000FFF75CFC074604E0FFF758FCC01B0228B6
:101C600075D8686A8007F7D42078400760D5E8699E
:101C70000027C00008D4E86940F08050E861E869B6
:101C8000012700F0805000905C480168C90513D41A
:101C90000168834641F480710160FFF737FC82469A
:101CA00006E000BFFFF732FCA0EB0A0064284ED824
:101CB000DBF80000C005F5D5E06801280AD008B1BE
:101CC000052813D0286A20F001002862286A20F035
:101CD000040002E0286A40F001002862E06841F256
:101CE000883B98B1FFF712FC82460BE0286A40F06F
:101CF00004002862EEE700BFFFF708FCA0EB0A0132
:101D000059455AD8286A8007F6D50CE0FFF7FEFB44
:101D1000824605E0FFF7FAFBA0EB0A0159454CD8D3
:101D2000286A8007F6D41FB1E86920F08050E86186
:101D3000E06988B36968C1F38101022944D00228AF
:101D4000C6F8608004D0FFF7E1FB044638E034E0D9
:101D5000FFF7DCFB074604E0FFF7D8FBC01B0228B7
:101D60002BD828688001F7D4206AB0F5803F05D1D0
:101D70006868A16820F4003008436860D4E908016D
:101D80000843696821F4741108436860C6F86090DC
:101D9000FFF7BCFB044606E025E000BFFFF7B6FBFB
:101DA000001B022809D828688001F7D51BE000BF76
:101DB000FFF7ACFB001B022802D90320BDE8F88F17
:101DC00028688001F4D40EE00128F7D06868226A00
:101DD00000F48031914204D1616A00F470108842AD
:101DE00001D00120EAE70020E8E7000000100240EF
:101DF0000000424280044242C008002000700040BF
:101E000010B5401EB0F1807F01D3012010BD4FF00E
:101E1000E02460610F21601701F01AF90020A06131
:101E200007202061002010BD70B590F83C20012AE9
:101E300026D0012480F83C40022280F83D2003682F
:101E40005A689D6822F070060A6832435A600D4B4A
:101E500002689A4208D0B2F1804F05D00A4B9A42EC
:101E600002D00A4B9A4204D1496825F080031943F5
:101E7000916080F83D40002180F83C10084670BD1C
:101E8000022070BD002C014000040040000800400A
:101E900010B5040003D094F83D0010B107E0012014
:101EA00010BD002084F83C00204600F01FF80220FE
:101EB00084F83D00211D206800F028FF012084F8EF
:101EC000460084F83E0084F83F0084F8400084F81F
:101ED000410084F8420084F8430084F8440084F808
:101EE000450084F83D00002010BD000008B50068E2
:101EF000B0F1804F08D10548C16941F00101C161CD
:101F0000C06900F00100009008BD00000010024010
:101F100070B5044690F83C00012817D0012584F8DC
:101F20003C50022084F83D002068826822F077024D
:101F300022F47F4282600868502830D00DDC2028CF
:101F40004DD005DC98B310283BD148E0022070BD8D
:101F5000302844D0402834D139E0602828D0702877
:101F600006D0B0F5805F2CD0B0F5005F29D10AE033
:101F7000CB68D1E90121206800F0FEFE206881686D
:101F800041F0770109E0CB68D1E90121206800F038
:101F9000F3FE2068816841F48041816011E0CA68E5
:101FA0004968206800F0FAFE5021206807E016E03A
:101FB000CA684968206800F002FF6021206800F0CC
:101FC000E5FE84F83D50002084F83C0070BDCA68EE
:101FD0004968206800F0E2FE40212068EFE72268AF
:101FE00001461046EBE770B5040004D094F83900C0
:101FF000002510B106E0012070BD84F8385020465D
:1020000000F022F8242084F839002068C16821F407
:102010000051C160204600F0E5FE2068016921F40E
:10202000904101612068416921F02A0141612068E5
:10203000C16841F40051C160E563202084F8390093
:1020400084F83A00002070BD30B585B000240094BB
:1020500001940294039400681449884224D11448DE
:10206000816941F480418161816901F48041049179
:10207000816941F00401816180690E4D00F0040026
:1020800004904FF400700090022001900320039010
:1020900069462846FFF744F92815CDE9000469464A
:1020A00028460294FFF73CF905B030BD00380140E6
:1020B00000100240000801402DE9F843044690F862
:1020C00039001F4616460D4620284CD1C5B1BEB179
:1020D00094F83800012846D0012084F838004FF0E9
:1020E0000008C4F83C80212084F83900FFF70EFA7C
:1020F000A6848146E684A068B0F5805F03D004E042
:102100000120BDE8F883206928B12E465FF0000564
:1021100084F838800EE00026FAE78021204600F09F
:10212000BDFEA0B9AEB116F8010B21684860E08C85
:10213000401EE084E08C4B464FF0000200970028E0
:10214000EBD14FF04001204600F0A8FE30B1032053
:10215000D7E735F8020BC0F30800E6E7202084F843
:1021600039000020CDE70220CBE7FEE7FEB50024D2
:1021700034480094019432490294016089158160C9
:10218000012505730475082606614FF4602144603B
:10219000C161FEF793FD08B1FEF712FCCDE90045E1
:1021A0000524694627480294FEF794FC08B1FEF71F
:1021B00007FC00950225694622480195FEF78AFC36
:1021C00008B1FEF7FDFB0095032569461D48019502
:1021D000FEF780FC08B1FEF7F3FB00950425694685
:1021E00018480195FEF776FC08B1FEF7E9FBCDE94A
:1021F000005469461348FEF76DFC08B1FEF7E0FB9A
:102200000094062469460F480194FEF763FC08B168
:10221000FEF7D6FB0094072469460A480194FEF7AE
:1022200059FC08B1FEF7CCFBCDE9004669460548EC
:10223000FEF750FC002801D0FEF7C2FBFEBD0000F7
:102240000024014028090020094808B5416941F0EF
:10225000010141614069002200F001000090114637
:102260000B20FFF7BFF9BDE808400B20FFF7ACB922
:10227000001002402DE9F04186B000262C4800965F
:10228000019602960396816941F01001816181698E
:1022900001F010010491816941F02001816181699F
:1022A00001F020010491816941F00401816181699B
:1022B00001F004010491816941F0080181618069A4
:1022C0001C4F00F008004FF40054049000222146F7
:1022D0003846FFF715F9DFF8608001224FF47041AE
:1022E0004046FFF70DF900224FF478714046FFF7A2
:1022F00007F9009401240225CDE9014569463846D5
:102300000395FFF70DF8A002CDE900066946029497
:102310004046FFF705F84FF2E030CDE9000469468A
:102320004046CDE90245FEF7FBFF06B0BDE8F0816F
:102330000010024000100140000C014010B586B0B2
:1023400000241648009401940294039404944FF0DE
:1023500080410594C0E900144FF6FF71C0E90241C5
:1023600004618461FFF794FD08B1FEF729FB4FF487
:102370008050009069460948FFF7CAFD08B1FEF792
:102380001FFB049404A905480594FFF74DFD0028A0
:1023900001D0FEF715FB06B010BD00009C0900201F
:1023A0000C4810B50A4901604FF4E1314160002149
:1023B00081600C22C160C0E904128161C161FFF734
:1023C00012FE002803D0BDE81040FEF7F9BA10BD98
:1023D00000380140E40900200B4810B509490160AC
:1023E000082141600221816000218161C161016297
:1023F000FFF72AF9002803D0BDE81040FEF7E0BA45
:1024000010BD0000005C0040240A0020FEE7FEE74B
:1024100010B52C4C002280212046FFF771F80120D6
:10242000FEF7B8FA012280212046FFF769F8012261
:1024300080212046FFF764F8122000F055F8B12003
:1024400000F052F8002000F093F8F12000F068F856
:102450007F2000F072F9002000F080F8002000F0EA
:10246000ACF9742000F091F9002000F08FF8012001
:1024700000F082F8A02000F0B4F9C82280211046B4
:1024800000F03CF80F2000F04EF900F089F83220FF
:1024900000F05DF9172000F06EF9A42000F04AF872
:1024A000012000F05EF9052000F091F9022000F013
:1024B00051F800210846FEF785FABDE810400120DA
:1024C00000F056B8000C01407047704770B50446E4
:1024D0000D46152000F02CFD204600F067FD284633
:1024E000BDE8704000F062BD10B50446FD2000F06C
:1024F0001FFD2046BDE8104000F058BD70B50446F1
:1025000015460E46C12000F013FD204600F04EFD9A
:10251000304600F04BFD2846BDE8704000F046BD57
:1025200010B50446B32000F003FD2046BDE810407E
:1025300000F03CBD10B50446B22000F0F9FC204686
:1025400000F034FD002000F031FDBDE81040002017
:1025500000F02CBD40F0A40000F0EABC10B5044629
:10256000A22000F0E5FC2046BDE8104000F01EBDB2
:1025700040F0AE0000F0DCBC10B50446AB2000F02B
:10258000D7FC2046BDE8104000F010BD10B5044651
:10259000B52000F0CDFC2046BDE8104000F006BD9F
:1025A00010B5B82000F0C4FC022000F0FFFC0320AE
:1025B00000F0FCFC042000F0F9FC052000F0F6FC23
:1025C000062000F0F3FC072000F0F0FC082000F0EB
:1025D000EDFC092000F0EAFC0A2000F0E7FC0B20EB
:1025E00000F0E4FC0C2000F0E1FC0D2000F0DEFC2B
:1025F0000E2000F0DBFC0F2000F0D8FC102000F0D3
:10260000D5FC112000F0D2FC122000F0CFFC1320EA
:1026100000F0CCFC152000F0C9FC172000F0C6FC2F
:10262000192000F0C3FC1B2000F0C0FC1D2000F0AE
:10263000BDFC1F2000F0BAFC212000F0B7FC2320D5
:1026400000F0B4FC252000F0B1FC272000F0AEFC27
:102650002A2000F0ABFC2D2000F0A8FC302000F078
:10266000A5FC332000F0A2FC362000F09FFC3920AE
:1026700000F09CFC3C2000F099FC3F2000F096FC10
:10268000422000F093FC452000F090FC482000F030
:102690008DFC4C2000F08AFC502000F087FC542078
:1026A00000F084FC582000F081FC5C2000F07EFCEF
:1026B000602000F07BFC642000F078FC682000F0D3
:1026C00075FC6C2000F072FC702000F06FFC742030
:1026D00000F06CFC782000F069FC7D2000F066FCC6
:1026E000822000F063FC872000F060FC8C2000F06A
:1026F0005DFC912000F05AFC962000F057FC9B20D6
:1027000000F054FCA02000F051FCA52000F04EFC8D
:10271000AA2000F04BFCAF2000F048FCBDE81040C0
:10272000B42000F043BC10B50446C72000F000FC04
:102730002046BDE8104000F039BC10B50446CA2060
:1027400000F0F6FB2046BDE8104000F02FBC10B5AD
:102750000446B12000F0ECFB2046BDE8104000F03C
:1027600025BC10B50446B62000F0E2FB2046BDE8CB
:10277000104000F01BBC10B50446BB2000F0D8FB95
:102780002046BDE8104000F011BC10B50446A02062
:1027900000F0CEFB2046BDE8104000F007BC70B54D
:1027A00004460D46752000F0C3FB204600F0FEFBFA
:1027B0002846BDE8704000F0F9BB10B50446A120E2
:1027C00000F0B6FB2046BDE8104000F0EFBB10B5AE
:1027D0000446BE2000F0ACFB2046BDE8104000F0EF
:1027E000E5BB10B50446B42000F0A2FB44F0A00005
:1027F00000F0DCFBB52000F0D9FBBDE8104055200F
:1028000000F0D4BB2DE9F05F2039C9B2DDF828B063
:102810001C46154601EB8101012802D0022805D192
:1028200001E0824800E0824801EB00087520FFF7D4
:10283000ACFF0B98002700F1070A00BF0BEB070065
:10284000C1B298F80060C0B2FFF740FE0AF0FF0185
:102850000B98FFF7A4FF5C2000F06AFB06F0010074
:1028600040EA400141EA800141EAC00141EA001129
:1028700041EA401141EA801141EAC01905EA090024
:1028800000F094FB04EA090000F090FBC6F340005E
:1028900040EA400141EA800141EAC00141EA0011F9
:1028A00041EA401141EA801141EAC01905EA0900F4
:1028B00000F07CFB04EA090000F078FBC6F380001E
:1028C00040EA400141EA800141EAC00141EA0011C9
:1028D00041EA401141EA801141EAC01905EA0900C4
:1028E00000F064FB04EA090000F060FBC6F3C000DE
:1028F00040EA400141EA800141EAC00141EA001199
:1029000041EA401141EA801141EAC01905EA090093
:1029100000F04CFB04EA090000F048FB06F0100050
:10292000C00040EA500141EA900141EAD00141EA89
:10293000101141EA501141EA901141EAD01905EA1B
:10294000090000F033FB04EA090000F02FFB06F059
:102950002000800040EA500141EA900141EAD001A4
:1029600041EA101141EA501141EA901141EAD019AF
:1029700005EA090000F01AFB04EA090000F016FB62
:1029800006F04000400040EA500141EA900141EA6F
:10299000D00141EA101141EA501141EA901141EA97
:1029A000D01905EA090000F001FB04EA090000F073
:1029B000FDFA06F0800040EA500141EA900141EA48
:1029C000D00141EA101141EA501141EA901141EA67
:1029D000D01605EA060000F0E9FA04EA060000F065
:1029E000E5FA7F1CFFB208F10108052F7FF626AF3C
:1029F0000BF10500C1B2C0B2FFF768FD0AF0FF019C
:102A00000B98FFF7CCFE5C2000F092FA0024002027
:102A100000F0CCFA002000F0C9FA641CE4B2082CE3
:102A2000F5D9BDE8F05F7420FFF7AFBE00000020CD
:102A3000B50400202DE9F05F0D46834900EB8000CE
:102A4000084400F150089B4614467520FFF79DFE90
:102A50000A98002700F1070A0BEB0700C1B298F8AB
:102A60000060C0B2FFF732FD0AF0FF010A98FFF7DD
:102A700096FE5C2000F05CFA06F0010040EA40019E
:102A800041EA800141EAC00141EA001141EA4011F6
:102A900041EA801141EAC01905EA090000F086FA0E
:102AA00004EA090000F082FAC6F3400040EA40015F
:102AB00041EA800141EAC00141EA001141EA4011C6
:102AC00041EA801141EAC01905EA090000F06EFAF6
:102AD00004EA090000F06AFAC6F3800040EA400107
:102AE00041EA800141EAC00141EA001141EA401196
:102AF00041EA801141EAC01905EA090000F056FADE
:102B000004EA090000F052FAC6F3C00040EA4001AE
:102B100041EA800141EAC00141EA001141EA401165
:102B200041EA801141EAC01905EA090000F03EFAC5
:102B300004EA090000F03AFA06F01000C00040EA8A
:102B4000500141EA900141EAD00141EA101141EA05
:102B5000501141EA901141EAD01905EA090000F04C
:102B600025FA04EA090000F021FA06F020008000AE
:102B700040EA500141EA900141EAD00141EA1011D6
:102B800041EA501141EA901141EAD01905EA0900E1
:102B900000F00CFA04EA090000F008FA06F0400020
:102BA000400040EA500141EA900141EAD00141EA87
:102BB000101141EA501141EA901141EAD01905EA99
:102BC000090000F0F3F904EA090000F0EFF906F05B
:102BD000800040EA500141EA900141EAD00141EA17
:102BE000101141EA501141EA901141EAD01605EA6C
:102BF000060000F0DBF904EA060000F0D7F97F1CBC
:102C0000FFB208F10108052F7FF626AF0BF1050092
:102C1000C1B2C0B2FFF75AFC0AF0FF010A98FFF7F1
:102C2000BEFD5C2000F084F90024002000F0BEF915
:102C3000002000F0BBF9641CE4B2082CF5D9BDE813
:102C4000F05F7420FFF7A1BD000000202DE9FC47D4
:102C50008146DDE90A56CDE900560C461F469046EE
:102C600060210120FFF7CEFDCDE9005621783B46DB
:102C700042464846FFF7C6FDAD1D14F8010FEDB200
:102C80000028F1D1BDE8FC87FEF746BC30B593B013
:102C900028216846FDF76FFA14210AA8FDF76BFAA0
:102CA00000240F941094119401204FF4A021129449
:102CB0008DE81300049002250004CDE907500001BF
:102CC00009906846FEF70CFF08B172B6FEE70F20C8
:102CD000CDE90A054FF48060CDE90C4002210AA835
:102CE0000E94FEF70DFE08B172B6FEE712200F90AB
:102CF0004FF40040CDE911040FA8FEF78BFD00282A
:102D000001D072B6FEE713B030BD7047F0B502686F
:102D1000164B174C174D4FF08047984205D0B842DC
:102D200003D0A04201D0A84203D122F070064A6825
:102D30003243984205D0B84203D0A04201D0A84205
:102D400003D122F44074CA6822434C6922F0800205
:102D5000224302608A68C2620A688262984201D194
:102D60000969016301214161F0BD0000002C0140AF
:102D7000000400400008004010B5846842EA0322C5
:102D800024F47F440A432243826010BD826822F00B
:102D900070020A4342F007018160704710B5036A70
:102DA000046A24F001040462846924F0F00444EA13
:102DB000021423F00A020A438461026210BD10B5B6
:102DC000036A23F0100303628369046A23F47043E7
:102DD00043EA023224F0A00343EA01118261016256
:102DE00010BD000070B5044600680169E26821F476
:102DF0004051114301612169A0680843616908439A
:102E00002168CA6841F20C639A430243CA60206891
:102E10004169A26921F44071114341611E49206852
:102E2000884202D1FEF712FE01E0FEF7FFFD00EB43
:102E3000C00101EB0012606864218000B2FBF0F376
:102E4000B3FBF1F36FF018067343B2FBF0F5B2FB7E
:102E5000F0F605EB8305322303EB0515B5FBF1F521
:102E6000B6FBF1F605F0F00505EB0615B2FBF0F642
:102E7000B2FBF0F0B0FBF1F06FF01802504306EB3C
:102E8000800003EB0010B0FBF1F0216800F00F00B0
:102E90002844886070BD0000003801402DE9F041F1
:102EA000984617460E460446069D1DE0681C1BD03A
:102EB0002DB1FEF72BFBA0EB0800A84214D9206827
:102EC000C16821F4D071C1602068416921F001011D
:102ED0004161202084F8390084F83A00002084F809
:102EE00038000320BDE8F0812068006836EA000061
:102EF00004D00020B842D9D00020F3E70120F9E740
:102F00000020704700207047012120F8401F002159
:102F10000180818001820846704730F8401F21F40B
:102F20003F4101800020704700207047FEE700000D
:102F30002DE9F0411C4E0546002220213046FEF7C7
:102F4000DFFA0120401EC0B2FCD2002240213046F0
:102F5000FEF7D6FA00244FF480784FF40077002271
:102F600039463046FEF7CCFA280601D5012200E0AA
:102F7000002241463046FEF7C3FA6806050E0122DC
:102F800039463046FEF7BCFA0020401EC0B2FCD2E3
:102F9000641CE4B2082CE2D33046BDE8F0410122C3
:102FA0004021FEF7ADBA0000000C01402DE9F041D0
:102FB0001E4E0546002220213046FEF7A1FA0120D0
:102FC000401EC0B2FCD2012240213046FEF798FAE2
:102FD0000020401EC0B2FCD200244FF480784FF491
:102FE0000077002239463046FEF78AFA280601D5D6
:102FF000012200E0002241463046FEF781FA6806D1
:10300000050E012239463046FEF77AFA0020401EAE
:10301000C0B2FCD2641CE4B2082CE2D33046BDE856
:10302000F04101224021FEF76BBA0000000C014084
:103030000FB4054B10B503A9044A029800F0EAF852
:1030400010BC5DF814FB000045390008C4080020DE
:103050000907090E002804DB00F1E02080F80014C5
:10306000704700F00F0000F1E02080F8141D704759
:1030700002E008C8121F08C1002AFAD17047704741
:10308000002001E001C1121F002AFBD1704700009F
:103090002DE9FF5F82B00021DDE90430020DDDF88B
:1030A00040B0034318D044F61050A2F2FF3242431E
:1030B0001514119801281FD0A5EB0B00401C5FEAE6
:1030C000000A4FF000064E4FDFF83891B0465046E8
:1030D00015D5CAF1000413E0119801244AA3012870
:1030E00001D16FEA0B010298119AC0E90031C0E9E1
:1030F000024206B0BDE8F09FCBF10000DFE70446D6
:103100000021404A491842EB0450CDE9001012E07A
:10311000E00707D032463B4640464946FDF7B1F945
:103120008046894632463B4610461946FDF7A9F9C6
:1031300006460F466410002CEAD1DDE90401DDE902
:103140000023BAF1000F06DAFDF79BF942464B4621
:10315000FDF797F905E0FDF706FA42464B46FDF705
:1031600002FA04460E460022284BFDF783FA03D8E4
:103170004FF0FF30014607E00022254B2046314644
:10318000FDF7D8F8FDF75EFA102409E0002C0ADB01
:103190000A220023FDF766F8039B30321A55641E9D
:1031A00050EA0102F2D1641C039AC4F111031444E1
:1031B000119A012A03D0012208430DD10AE00843E5
:1031C00004D000204FF0110B119072E7A3EB0B0518
:1031D0006D1E0DE05B4504DD4FF0000205F10105B9
:1031E00004E003DA4FF00002A5F10105002AECD05B
:1031F00002981199C0E90231C0E9004579E7000061
:10320000000014400000F03F300000000000F043D8
:103210000000E03F2DE9FF4F95B09B4689460646EA
:1032200000250FE2252877D100242746F84A0121FE
:10323000059400E0044316F8013F203B01FA03F037
:103240001042F7D130782A2811D06FF02F03307850
:10325000A0F13002092A16D8059A44F0020402EBC4
:10326000820203EB42021044761C0590EFE759F806
:10327000042B0592002A03DA504244F400540590CE
:1032800044F00204761C30782E2816D116F8010F6F
:1032900044F004042A280DD06FF02F023078A0F1FA
:1032A0003003092B09D807EB870302EB4303C71848
:1032B000761CF3E759F8047B761C30786C280FD025
:1032C00006DC4C2817D068280DD06A2814D104E0F9
:1032D000742810D07A280FD10DE044F400140AE0CD
:1032E00044F4801401E044F440147278824202D124
:1032F00004F58014761C761C307866280BD013DC1D
:10330000582877D009DC002875D04528F6D0462803
:10331000F4D047281AD19DE118E0632835D06428FD
:1033200079D0652812D195E1702873D008DC672820
:10333000F1D069286FD06E280DD06F2806D1B5E086
:1033400073282CD0752875D0782874D05A461799D0
:1033500090476D1C75E1C4F30250022809D0032880
:103360000DD0D9F8001004280DD00D6009F1040922
:1033700067E1D9F80010EA17C1E90052F6E7D9F879
:1033800000100D80F2E70D70F0E719F8041B8DF8BE
:10339000001000208DF80100EA46012003E059F8F2
:1033A00004AB4FF0FF3061074FF0000102D40DE095
:1033B00008F101018846B9420FDA8045F8DB1AF8B6
:1033C00008100029F4D108E008F101018846814283
:1033D000FADB1AF808100029F6D105985B46A0EB35
:1033E000080721463846179A00F094FA284400EB63
:1033F000080507E04DE029E10DE01AF8010B5A46F7
:1034000017999047B8F10108F7D25B462146384634
:10341000179A13E142E00A220092C4F302524FF0DD
:10342000000A022A08D059F804CB032A4FEAEC71AB
:103430000AD00DE029E02AE009F1070121F0070296
:10344000F2E802C1914609E00FFA8CFC4FEAEC71F8
:10345000042A03D14FFA8CFC4FEAEC71002907DAF9
:103460000A460021DCF1000C61EB02012D2202E092
:10347000220504D52B228DF80420012203E0E20767
:1034800001D02022F7E7904659E00A2102E01022FD
:103490000DE010214FF0000A00910BE010224FF0D8
:1034A000000A44F004040827009203E008224FF0C9
:1034B000000A0092C4F30252022A05D059F804CB44
:1034C0000021032A08D009E009F1070121F00702D1
:1034D000F2E802C1914605E01FFA8CFC042A01D1F2
:1034E0000CF0FF0C4FF00008220728D5702806D0FA
:1034F000009B83F0100353EA0A0305D00EE040223C
:103500008DF80420012208E05CEA010206D0302296
:103510008DF804208DF8050002229046009B83F070
:10352000080353EA0A030AD15CEA010201D16207E7
:1035300005D530228DF804204FF001087F1E582851
:1035400004D034A003900EA802900DE036A0F9E755
:1035500053466046009AFCF785FE84460398825CD9
:103560000298401E029002705CEA0100F0D10298BD
:1035700006A9081A00F1200A600702D524F4803455
:1035800000E00127574502DDA7EB0A0000E000201C
:1035900000EB0A01009005984144401A0590E003B1
:1035A00006D45B462146179A059800F0B3F9054406
:1035B000002706E001A85A46C05D179990476D1C88
:1035C0007F1C4745F6DBE0030CD55B462146179A86
:1035D000059800F09FF9054404E030205A461799F9
:1035E00090476D1C0099481E00900029F5DC08E00A
:1035F000029802995A460078491C029117999047FF
:103600006D1CBAF10001AAF1010AF1DC65E10000CC
:1036100009280100303132333435363738396162A8
:10362000636465660000000030313233343536376C
:1036300038394142434445460000000000F058F943
:103640000544761C307800287FF4ECAD19B028468C
:10365000BDE8F08F620700D4062709F1070222F0C7
:10366000070CFCE80223E14603F000485FEA080C7F
:1036700002D00FF2702C0DE05FEA045C02D50FF26D
:10368000682C07E05FEAC47C02D00FF2602C01E0F6
:10369000AFF2700C4FF0FF3823F00043CDF850C06C
:1036A00065280CD006DC452809D046281DD04728BF
:1036B0003DD13DE0662818D067287ED138E0002152
:1036C000112F01DB112000E0781CCDE9000106A9D3
:1036D0000EA8FFF7DDFCDDE90F010E9A0391002132
:1036E000009207F1010A04914DE04FF0004000976D
:1036F000CDE9011006A90EA8FFF7CAFCDDE90F020B
:1037000003920E9B11990022DDF80CA00093049205
:1037100011B9791C00EB010AB7EB0A0004D4C0F11F
:10372000FF3007F1010A0490AAEB0700019044E082
:10373000012F00DA01270021112F01DD112000E007
:103740003846CDE9000106A90EA8FFF7A1FCDDE986
:103750000F010E9A0391002104910092BA462107AD
:103760000CD40399514500DA8A46BAF1010F05DD00
:10377000009AAAF10101515C302908D0B84202DA5E
:1037800010F1040F06DA0121CDE9011015E0AAF1CC
:103790000101E9E7002805DC049901440491AAEB42
:1037A000000102E0411C514500DD8A460499401A9F
:1037B000401C01904FF000400290200704D4019873
:1037C000504501DBCDF8048000208DF84F000298B1
:1037D0000DF14F07B0F1004F25D02B200E9002982D
:1037E0004FF0020800280CDA404202902D200E9083
:1037F00007E00A210298FCF71FFD3031029007F81C
:10380000011DB8F10001A8F10108F2DC02980028BE
:10381000EFD1791E0E980870307800F0200040F04B
:10382000450007F8020D12A8C01B00F10708149804
:10383000007800B1012000EB0A01019801EBE07172
:1038400005984144401A401E0590E00306D45B46AB
:103850002146179A059800F05DF805441498007801
:1038600018B15A46179990476D1CE00324D55B4662
:103870002146179A059800F04DF805441CE004987D
:10388000002807DBDDE90301884203DD0098405C86
:10389000179901E0179930205A469047049805F18E
:1038A0000105401C04900198401E019004D12E2077
:1038B0005A46179990476D1CBAF10001AAF1010A06
:1038C000DDDC05E017F8010B5A46179990476D1C8F
:1038D000B8F10001A8F10108F4DC5B462146179A13
:1038E0000598ABE62D0000002B0000002000000032
:1038F0002DE9F041044600251E461746880404D4ED
:1039000005E039462020B0476D1C641EF9D52846D5
:10391000BDE8F0812DE9F041044600251E469046A1
:10392000C80301D5302700E02027880404D505E02E
:1039300041463846B0476D1C641EF9D52846BDE89F
:10394000F081000013B54FF6FF730122694602486B
:10395000FEF7B2FB00981CBDE40900201CB5002452
:103960004FF4FA76FDF7E0FDFFF790F9FEF782FCE1
:10397000FEF76AFCFEF7FAFBFEF712FDFEF7DEFC2F
:10398000FEF72AFDFEF744FD75002846FDF7B6FC5C
:103990002846FDF7B3FCFE48FDF736F80822FD493E
:1039A000FB48FDF715FB00210846FDF70BF8002545
:1039B00000952B46F822F8A101200195FFF746F962
:1039C0000E271C20CDE900077023F822F5A1012065
:1039D000FFF73CF93E20CDE900077023F822F2A161
:1039E0000120FFF733F92020CDE900507023072292
:1039F000EEA10120FFF72AF94FF02E084FF016092B
:103A0000CDE900987023F822E6A10120FFF71EF906
:103A10003927CDE900787023F822E3A10120FFF7D0
:103A200015F94020CDE900501F230022E2A101201A
:103A3000FFF70CF94FF04E08CDE900987023F822FB
:103A4000D8A10120FFF702F9CDE900787023F82210
:103A5000D5A10120FFF7FAF86020CDE90050FF233F
:103A60001A46D8A10120FFF7F1F84FF06E0BCDE90F
:103A7000009B5D467023F822CAA10120FFF7E6F8FB
:103A8000CDE900757023F822C7A10120FFF7DEF809
:103A9000CFA0FFF7CDFABF4D20356421BC48FDF71C
:103AA000FFF9BC49002000BF55F8202051F8203014
:103AB0001A4445F82020401C0828F5DB641CB44259
:103AC000EBD1B44C0020403455F82010B1FBF6F196
:103AD00044F82010401C0828F6DB2068FCF794FB13
:103AE000DFF8F8924946FCF751FB6FF00B0A51469C
:103AF000FCF77EFBFCF78DFB02460B46B8A0FFF7F8
:103B000097FA6068FCF780FB4946FCF73FFB51469B
:103B1000FCF76EFBFCF77DFB02460B46B5A0FFF7FA
:103B200087FA2068FCF770FB4946FCF72FFB5146EB
:103B3000FCF75EFB07466068FCF766FB4946FCF74E
:103B400025FB5146FCF754FB3946FCF71FFBFCF7FD
:103B500060FB02460B46A9A0FFF76AFAA9A0FFF78F
:103B600067FAA068FCF750FB0221FCF741FB5146C5
:103B7000FCF73EFBFCF74DFB02460B46A2A0FFF70D
:103B800057FAE068FCF740FB4946FCF7FFFA51465C
:103B9000FCF72EFBFCF73DFB02460B4695A0FFF71A
:103BA00047FAE068FCF730FB4946FCF7EFFA51466C
:103BB000FCF71EFB0746A068FCF726FB0221FCF77A
:103BC00017FB5146FCF714FB3946FCF7DFFAFCF70C
:103BD00020FB02460B4689A0FFF72AFA89A0FFF7CF
:103BE00027FA2069FCF710FBDFF830824146FCF72A
:103BF000CDFA5146FCF7FCFAFCF70BFB02460B46EC
:103C000087A0FFF715FA6069FCF7FEFA4946FCF752
:103C1000BDFA5146FCF7ECFAFCF7FBFA02460B46FC
:103C200074A0FFF705FA6069FCF7EEFA4946FCF765
:103C3000ADFA5146FCF7DCFA07462069FCF7E4FAD6
:103C40004146FCF7A3FA5146FCF7D2FA3946FCF795
:103C50009DFAFCF7DEFA02460B4676A0FFF7E8F97C
:103C600068A0FFF7E5F9A069FCF7CEFADFF8D0818C
:103C70004146FCF78BFA5146FCF7BAFAFCF7C9FA51
:103C800002460B466FA0FFF7D3F9E069FCF7BCFAD8
:103C90004946FCF77BFA5146FCF7AAFAFCF7B9FA59
:103CA00002460B4653A0FFF7C3F9E069FCF7ACFAF4
:103CB0004946FCF76BFA5146FCF79AFA0746A069A9
:103CC000FCF7A2FA4146FCF761FA5146FCF790FA7C
:103CD0003946FCF75BFAFCF79CFA02460B4647A014
:103CE000FFF7A6F947A0FFF7A3F946A0FFF7A0F951
:103CF0000E270097A06940F253714843400A1423ED
:103D00007022FF2100F0C2F80097E06940F27711BD
:103D10004843400A3723FF22072100F0B7F82E2737
:103D20000097206940F277114843000A0F23702260
:103D3000FF2100F0ABF80097606940F2771148432B
:103D4000400A3223FF22072100F0A0F84E270097F7
:103D5000A0680F2300EB4001C1EBC010C009702226
:103D6000FF2100F093F80097E06840F27711484394
:103D7000400A3223FF22072100F088F8CDF800B076
:103D8000206840F277114843400A5F460F2363E002
:103D900028090020C80800203132565F4F75747022
:103DA000757400006D5600006D41000035565F4F80
:103DB0007574707574000000332E33565F4F757440
:103DC00070757400312E38565F4F757470757400BD
:103DD000737461727421200D0A0D0A0000004040C6
:103DE000312E385620CAE4B3F620252E33662056ED
:103DF00020000000252E336620412000252E33664A
:103E0000205720000D0A0000332E335620CAE4B399
:103E1000F620252E33662056200000000000C0400A
:103E2000352E305620CAE4B3F620252E33662056B0
:103E30002000000020252E336620572000000000BF
:103E40000000704131325620CAE4B3F620252E33EB
:103E500066205620000000007022FF2100F016F8B6
:103E60000097606840F277114843400A3223FF22EE
:103E7000072100F00BF800204FEA000145F8201060
:103E8000401C0828FADB002407E600002DE9FF4F5C
:103E900081B01E460E9D04460A2805DADDE90212AD
:103EA000E0B20095FEF7C6FDA4F10A00771F4FF0BF
:103EB0000A0A592813D894FBFAF0DDE90212C0B2BD
:103EC000FBB20095FEF7B6FD94FBFAF10AFB114038
:103ED000DDE90212C0B233460095FEF7ABFDA4F156
:103EE00064014FF0640BA6F10A08B1F5617F21D29D
:103EF00094FBFBF0DDE90212C0B208F0FF0300956D
:103F0000FEF798FD94FBFBF10BFB114191FBFAF0DE
:103F1000DDE90212C0B2FBB20095FEF78BFD94FB07
:103F2000FAF10AFB1140DDE90212C0B233460095F6
:103F3000FEF780FDA4F57A7142F22732A6F10F094F
:103F4000914233D84FF47A7094FBF0F0DDE902121D
:103F5000C0B209F0FF030095FEF76CFD4FF47A70D4
:103F600094FBF0F100FB114191FBFBF0DDE9021243
:103F7000C0B208F0FF030095FEF75CFD94FBFBF177
:103F80000BFB114191FBFAF0DDE90212C0B2FBB26A
:103F90000095FEF74FFD94FBFAF10AFB1140DDE9B5
:103FA0000212C0B233460095FEF744FDA4F51C5042
:103FB00026491038884246D842F2107094FBF0F03F
:103FC000A6F11401CBB2DDE90212C0B20095FEF7F2
:103FD00031FD42F2107094FBF0F100FB11414FF4FF
:103FE0007A7091FBF0F0DDE90212C0B209F0FF0334
:103FF0000095FEF71FFD4FF47A7094FBF0F100FB83
:10400000114191FBFBF0DDE90212C0B208F0FF03A1
:104010000095FEF70FFD94FBFBF10BFB114191FBAB
:10402000FAF0DDE90212C0B2FBB20095FEF702FD24
:1040300094FBFAF10AFB1140DDE90212C0B23346EB
:104040000095FEF7F7FC05B0BDE8F08F0B5C0100B2
:104050000000000000000000010203040607080938
:104060000000000001020304884000080000002056
:10407000C8080000C40700086C470008C8080020F2
:10408000480800008030000871324F1A07021B14E4
:104090007F021010242A7F2A1223130864623649F3
:1040A000552250330503241C22411441221C1F14A5
:1040B000083E0814080512082350302A080111236D
:1040C0006060100B20100804023E5149453E144226
:1040D0007F40102942615149462141454B31181416
:1040E000127F1027454545393C4A4949300171093D
:1040F00005033649494936064949291E3336361AD9
:1041000056051B0814642A1401196928131408029F
:1041100001510906324979413E7E1111117E7F32EB
:104120001F3E414141227F042A1C0F180D417F0987
:104130000909013E4149497A7F86127F14417F4136
:104140002F2040413F017F4C1B7F4001280B7F0205
:104150000C027F7F0408107F3C2A3E32180D063E79
:104160004151215E7F09192946464618083101014F
:104170007F01013F2C18163F1F2040201F3F403871
:10418000403F63140814630708700807C7134543CA
:104190001974111A024612201441417F2E040201A3
:1041A00002045E1A400819FA180F545454787F48D4
:1041B0004444383844444420051C487F38141F18B0
:1041C000087E090102E61008493F7F080404781CB4
:1041D000447D40A013443D257F10284419A2112F8F
:1041E0007C0418047C7C1E293C1B387CFE3E08089D
:1041F000141418141B084846180D20043F4440208E
:104200003C4040207C1CA018091C3C4030403C44F1
:104210002842100B0C5050503C4464544C44340819
:104220003641327F14413608299F77023E55554169
:1042300022227920151824742E24487E4942405D9C
:104240002222225D15167C16152277160A55555521
:10425000281A010211180B0A0D0A0408142A142244
:104260000401121C140808082A0101111402050295
:104270001D44445F44B519FC18097E2020103E06F9
:104280000F7F703318183C4050203C111A223C28F4
:1042900022081708342A7D1708046A593048454017
:1042A0002070292628707028262970702A252A70E7
:1042B00072290A2B29240F48132D2A707E117F4959
:1042C000490E515171117C55565444051C56555692
:1042D0000A145455441B457E7224447E4524467D71
:1042E0004614457C4519303816413E7C0A11227D22
:1042F000384546443838444645383846454605181A
:104300003539384544453822140814222E51494580
:104310003A3C4142403C3C4042413C3C4241423CB0
:104320003C4140413C0C1062110C7F1212120C40B7
:104330003E01493620731808782054565578207865
:104340001A780F190A197D190F180F575678245427
:104350007854580C5252721338281B1838281B18DE
:1043600038281B183823121824497A4024487A41E7
:104370001C4A7942051378423819314A4E4A307A3C
:10438000110A097030494A483030484A4930304AA9
:10439000494A05181F31304A484A3008082A080897
:1043A0003864544C383841422078384042217838BB
:1043B00042412205281D4022780C5052513C7E1467
:1043C0001414080C5150513C1E0909295E0815159A
:1043D000354EEB2A20501A20FA190A1A490A1A7C7B
:1043E0000A1808382050507C031F231B510E051B50
:1043F000467CC31A44AF19A014447C40167F48443D
:10440000404014497F4418087C0812217C78109B96
:104410002B7C090A29A5281A3847444738304B48CD
:104420004B303E417F494938443854587C15163545
:10443000481E1B1048F01C202048051A48501C201C
:10444000204905102D04057E0504083C4822013C46
:104450004245423C38424522783C4340433C384345
:104460004023780C1160110C4466554C44486A593D
:10447000482B44640A1B685A0A200965564D444873
:10448000695A49240201021C010201051B010109AC
:10449000290A1129042C0205021D120118147F0596
:1044A000153A503E55554122181408140C444A4AF6
:1044B000510150094A4A4474424142741E7E11110E
:1044C000117EB2280D49367F02010103704E414E24
:1044D000700F180D4161514945437F0808087F3E20
:1044E0000F123E14417F4118317F08142241700E93
:1044F000010E707F020C027F7F0408107F635D490C
:104500005D633E4141413E413F013F417F09090911
:1045100006635549414101017F51180B017E01039A
:1045200008557F5508638210256307487F48075E5A
:104530006101615E384448304C7C2A2A2A14443890
:10454000040408304B4D59302854544420100F189F
:104550005552223E0402027C3C4A4A4A3C143C40EA
:1045600020182D7C1028444041320C30407E202001
:10457000103E1C2040201C142B2A2A60384444443E
:1045800038443C047C4470282424180C1212521421
:104590001E4C5424043C4A1B3C4028180818247E16
:1045A000241844284210190C107E100C3844304452
:1045B000380A0A4A2A1E044434140C2010780418BD
:1045C0001618084C483848487848484828187C0845
:1045D000087C082818401016405454547C12182D9A
:1045E0005840380801182F01413D090710087C0286
:1045F000010E0243221E42427E424222120A7F02E2
:10460000423F02423E0A0A7F0A0A084642221E042C
:1046100003423E02420118097E024F221F024A4A0B
:1046200087192910182A46023F424A460648402068
:104630001E08464A321E0A4A3E09080E10094E203C
:104640001E04453D0504147F08101F44241F040464
:10465000403C100C40422A122A0622127B162214D9
:1046600040201F12781D0204783FF01A445B196441
:10467000100F0204083032027F0232021222520E60
:10468000180B2A2A2A40382422207040EB180C06E6
:104690000A3E4A4A4A047F04140C4B1B7E400D28F4
:1046A000094A7E040545251C0F4B127C18097E40E3
:1046B000307E40201008C11D427E0E025019711735
:1046C000201802040102240705071011F804030151
:1046D00001030EF01F20408080C0300F540404FE00
:1046E000268080FF80802B1E01011012C23CE0D08A
:1046F000C8C4C2C1C0F81E02018181423C1B78803F
:10470000011481413E26C0300C02FF100907040449
:104710008484FF8484180AFF83434343830378819E
:1047200020280EC0603FE09CC243414181061F61CA
:1047300031200B403F0E0303C3330B07011AFE0465
:1047400021180B3C62C1818141623C3C434F2E8168
:10475000433CFC0670180A86F860818282C2613888
:0C476000A201FF0142320182105324F438
:04000005080000ED02
:00000001FF
